:020000040800F2
:10000000002000203D340008F930000801310008CC
:1000100000000000000000000000000000000000E0
:10002000000000000000000000000000093100088E
:100030000000000000000000133100081D3100081E
:100040008D340008000000008D3400088D34000855
:100050008D3400088D3400088D3400088D3400087C
:10006000000000008D3400088D3400088D34000835
:100070008D3400088D3400088D3400080000000025
:100080008D34000800000000000000008D340008DE
:10009000000000008D3400088D3400088D34000805
:1000A0008D3400088D3400088D340008CD1E000802
:0800B0008D340008000000007F
:1000B80010B5064C2378002B07D1054B002B02D036
:1000C800044800E000BF0123237010BD5C0000203D
:1000D80000000000C85A0008044B10B5002B03D0DC
:1000E8000349044800E000BF10BDC04600000000FE
:1000F80060000020C85A0008002243088B4274D3CD
:1001080003098B425FD3030A8B4244D3030B8B4210
:1001180028D3030C8B420DD3FF22090212BA030C19
:100128008B4202D31212090265D0030B8B4219D3FA
:1001380000E0090AC30B8B4201D3CB03C01A52411A
:10014800830B8B4201D38B03C01A5241430B8B4262
:1001580001D34B03C01A5241030B8B4201D30B034B
:10016800C01A5241C30A8B4201D3CB02C01A524172
:10017800830A8B4201D38B02C01A5241430A8B4235
:1001880001D34B02C01A5241030A8B4201D30B021E
:10019800C01A5241CDD2C3098B4201D3CB01C01A38
:1001A800524183098B4201D38B01C01A5241430942
:1001B8008B4201D34B01C01A524103098B4201D330
:1001C8000B01C01A5241C3088B4201D3CB00C01A9D
:1001D800524183088B4201D38B00C01A5241430815
:1001E8008B4201D34B00C01A5241411A00D201463A
:1001F800524110467047FFE701B5002000F006F8AD
:1002080002BDC0460029F7D076E770477047C04660
:10021800002B11D1002A0FD1002900D1002802D0CB
:100228000021C943080007B4024802A140180290FF
:1002380003BDC046D9FFFFFF03B4684601B5029865
:1002480000F006F8019B9E4602B00CBC7047C04601
:10025800F0B557464E464546DE46E0B504000D006B
:100268009246994683B08B4230D82DD049465046A5
:1002780000F098FB29000600200000F093FB331AD9
:100288009846203B34D49B4653465A4693404246B0
:100298001F00534693401E00AF423BD8AF4200D1E7
:1002A80079E05B46A41BBD41002B00DA76E0002212
:1002B80000230092019301235A469340019301239E
:1002C80042469340009329E08242CFD9002200237E
:1002D800009201930C9B002B01D01C605D6000987C
:1002E800019903B0F0BCBB46B246A946A046F0BD92
:1002F80042469B4620239B1A5246DA404146130049
:100308004A468A40170042461F43534693401E0000
:10031800AF42C3D900220023009201934346002B29
:10032800D8D0FB0772081A4346467B080EE0AB425A
:1003380001D1A2420CD8A41A9D41012024196D4173
:100348000021013E24184D41002E06D0AB42EED9C3
:10035800013E24196D41002EF8D1009801995B46A1
:1003680000196941002B24DB2B005A464446D34030
:100378002A00E2401C005B461500002B2ADB260001
:100388009E40330026004746BE403200801A9941FD
:10039800009001919EE7A342BCD882E74246202301
:1003A80000219B1A0022009101920122DA40019259
:1003B80085E7424620239B1A2A0046469A40230096
:1003C800F340444613432A00E2401C005B461500F4
:1003D800002BD4DA42462F002023260097409B1A90
:1003E800DE403B003343CDE7F0B54F464646D646A0
:1003F8004402C0B547000E1C640A3F0EC50F002F0B
:100408003CD0FF2F42D00023802299469A46E40030
:10041800D20414437F3F73025B0A984673001B0E95
:10042800F60F002B1BD0FF2B13D042468021D200A1
:10043800C9041143884600207F3B2900FF1A4B4618
:100448007140C9B20F2B00D9B5E0744A9B00D3584C
:100458009F464346002B3FD1FF3F023303E043460C
:10046800002B2DD1012329004A467140C9B21A43F5
:100478000E2A38D86A48920082589746002C13D121
:1004880004239946033B00279A46C4E7002C05D16C
:1004980008239946063BFF279A46BCE70C23994652
:1004A800093BFF279A46B6E7200000F05DFA762759
:1004B800431F9C4000237F4299469A463F1AAAE769
:1004C800404600F051FA4246431F9A4076235B4269
:1004D8001B1A90460020B0E703234A461A43914668
:1004E8000320FC33A9E70D00FF200022C005ED071B
:1004F80010432843E0BCBA46B146A846F0BD0D00FB
:1005080000200022F2E75346022BEDD0032B33D014
:10051800A046012B05D100200022E7E7350003287B
:100528007AD03B007F33002B2DDD4246520707D09F
:100538000F2241460A40042A02D004229446E0448D
:100548004246120105D54246364B1A403B009046BA
:100558008033FE2BC8DC42469201520AD8B2C5E766
:1005680080220025FF20D203C0E78022D203144254
:1005780002D04346134249D08022D203224352027A
:10058800FF20520AB2E70122D31A1B2BC3DC4246D2
:10059800DA4043469E37BB40591E8B411A435307E6
:1005A80004D00F231340042B00D00432530129D563
:1005B800012000229AE7424663015501AB4215D259
:1005C8001B200022013F01261C0052005B00002C6A
:1005D80001DB9D4201D85B1B324301380028F3D16F
:1005E800581E8341134398460D009AE71A200122AA
:1005F8005B1BE8E7023B5A4253415B42350000224D
:10060800D8B273E792010020520A6FE71A435202E8
:100618003500FF20520A69E74446ADE7E45A00086E
:10062800245B0008FFFFFFF7F0B54F464646D64665
:1006380043025B0A4500C0B599460F1C2D0EC60F34
:10064800002D00D188E0FF2D00D18DE08022DB0055
:10065800D2041A430023914698469A467F3D7C026D
:100668007B00640A1B0EFF0F002B68D0FF2B21D0E4
:100678008022E400D204144342467F3B5B190021E8
:100688005D1C0A2A2EDC7E404246022A23DC013AFF
:10069800012A00D9BDE002296ED001292CD1002001
:1006A8000022C005F60710433043E0BCBA46B14605
:1006B800A846F0BD2B00FF33002C65D0032241462D
:1006C80011433200013588467A40FF350A2900DD9A
:1006D800D8E016000321404601228240A620C0002F
:1006E800024220D05346022B46D0032B00D1BBE058
:1006F80051464C460129D2D02B007F33002B70DDA8
:10070800620704D00F222240042A00D004342201B8
:1007180003D5634B1C402B008033FE2B2CDCA2013D
:10072800520AD8B2BDE790208000024227D1B938DA
:10073800FF3810426DD03E00A1468A46D2E7002C11
:1007480041D1012342461A4390462B0042460121DB
:100758005D1C0A2A97DDC5E7002B26D1042398469D
:10076800033B00259A467AE7002B18D108239846C0
:10077800063BFF259A4672E7FF20002291E7802278
:100788000026FF20D2038CE741460222013511439F
:100798008846FF350A29A5DC02217E4074E70C2330
:1007A8009846093BFF259A4659E7180000F0DCF8FF
:1007B8004A46431F76259A4000236D429146984643
:1007C8009A462D1A4BE7200000F0CEF84246431F08
:1007D8009C402B1A763B00215D1C0A2A00DC52E75C
:1007E80080E70122D31A1B2B00DD58E79E35220033
:1007F800AC40DA40631E9C412243530704D00F23C8
:100808001340042B00D00432530137D501200022B5
:1008180047E7210C4A462404240C2700100C120434
:10082800120C44435743484351433A0C0919521890
:10083800944203D9802149028C4660443F04110444
:100848003F0CC9198C01671EBC41120C890E121885
:100858000C439201144312010ED5012362081C4077
:10086800144349E73E00A14680224B46D2031A436F
:100878005202FF20520A14E71D003DE792010020B2
:10088800520A0EE70F29EDD180224B46D2031342BC
:10089800EAD01442E8D13E00FF20224301E7C046D7
:1008A800FFFFFFF741024200C30F490A0020120E62
:1008B8007E2A03DD9D2A02DD094A981870478020A8
:1008C80000040143952A07DC9620821AD140484249
:1008D800002BF3D10800F1E7963A9140F7E7C046BC
:1008E800FFFFFF7F70B5041E0ED000F03DF89E2379
:1008F80001001B1A962B0CDC08282FD008398C40D5
:100908006402640AD8B201E000200024C005204334
:1009180070BD992B16DC421F052800D09440220098
:1009280010480240650709D00F252C40042C05D03B
:100938000432540102D59F2302405B1A9201540AE3
:10094800D8B2E3E7020020001B3290400200501E9C
:1009580082410520401AC4401443E0E7640296200F
:10096800640AD3E7FFFFFFFB1C2101231B04984205
:1009780001D3000C10391B0A984201D3000A083928
:100988001B09984201D30009043902A2105C4018DF
:100998007047C04604030202010101010000000083
:1009A8000000000010B5002903D1FFF7DDFF20305B
:1009B80002E00800FFF7D8FF10BDC04690B585B02B
:1009C80000AF78600A00FB1C1A700F243B19002244
:1009D8001A70124B00220121180003F034F801208C
:1009E80002F0D8FDF91C78686423012204F0A0F80D
:1009F800391978686423012204F0FAF9012002F019
:100A0800C9FD064B01220121180003F01CF83B190F
:100A18001B781800BD4605B090BDC04600040050C4
:100A280090B589B000AFF86008007A6019000B240F
:100A38003B19021C1A700A203B180A1C1A703B1832
:100A48001B78042B44D810217B1800221A6000223E
:100A58001A713B191B78802252421343DAB27B1871
:100A68001A700023FB610123BB610FE0FB695A1C6C
:100A7800FA611A007B689B1819781023FA18BB6969
:100A8800D3180A1C1A70BB690133BB610A243B19CD
:100A98001B78BA699A42E9DD0F4B00220121180040
:100AA80002F0D1FF3B191B789BB201339AB2FA23AB
:100AB8009B0010217918F86804F03AF8064B0122D7
:100AC8000121180002F0BFFF0A2002F063FD00E0D8
:100AD800C046BD4609B090BD00040050B0B58AB00C
:100AE80000AF7861796909680A0000210B00510B91
:100AF8007960D3043B601D4A002338687968FFF7A2
:100B080087FB02000B003A627B627B6A1B043A6A2D
:100B1800120CBA60BA681A43BA607B6A1B0CFB6095
:100B28003A7A0C2110200B18DB191A707B6A1B0605
:100B38003A6A140A1C437B6A1D0AE2B20B18DB19D5
:100B48005A703A6A7B6A131CDAB204000B18DB1974
:100B58009A707B69D86B0B19DA1903230621FFF702
:100B68005FFFC046BD460AB0B0BDC0460048E801B8
:100B780080B582B000AF78607B68D86B7B680C3337
:100B88001A0001230921FFF74BFFC046BD4602B0FA
:100B980080BD80B582B000AF78607B68D86B7B6819
:100BA80013331A0001230B21FFF73AFFC046BD4655
:100BB80002B080BD80B582B000AF78607B68D86B2A
:100BC8007B6816331A0001231F21FFF729FF7B6872
:100BD800D86B7B6818331A0001232021FFF720FF08
:100BE8007B68D86B7B6819331A0001232121FFF732
:100BF80017FFC046BD4602B080BD90B585B000AFB6
:100C080078600F217B1800221A707B689B7B1B0180
:100C1800DAB27B181A707B68DB7BDB18DAB20C005F
:100C28003B191B78D318DAB23B191A707B685A7FC4
:100C38003B191B78D318DAB23B191A707B68D86B4A
:100C48003A1901231D21FFF7EBFE7B685B7B1B0133
:100C5800DAB221007B181A707B681B7C9B00DAB221
:100C68007B181B78D318DAB27B181A707B68DA7D88
:100C78007B181B78D318DAB27B181A707B68D86B8C
:100C88007A1801231E21FFF7CBFE7B68D86B7B689F
:100C980015331A0001232621FFF7C2FEC046BD46C0
:100CA80005B090BD90B585B000AF78607B68DB6B10
:100CB80031211800FFF782FE03001A000F217B186C
:100CC8001A707B181B7807229343DAB27B181A70C4
:100CD8007B181B7805221343DAB27B181A707B68DD
:100CE800D86B0C007A1801233121FFF799FE2100F7
:100CF8007B180C221A707B68D86B7A18012337216D
:100D0800FFF78EFEC046BD4605B090BD80B584B0E5
:100D180000AF78600A00FB1C1A70FB1C1B78782255
:100D280052421343DAB20F217B181A707B68D86BD2
:100D38007A1801230121FFF773FE7B68FA1C28212A
:100D480012785A54C046BD4604B080BD80B584B000
:100D580000AF78600F217B18FF221A707B68D86B70
:100D68007A1801231221FFF75BFEC046BD4604B086
:100D780080BD80B582B000AF78607B680021180024
:100D8800FFF7C4FF0F2002F005FC7B681800FFF78F
:100D9800A5FE7B68D86B7B6812331A0001233921C2
:100DA800FFF73EFE7B681800FFF7E2FE7B6818003D
:100DB800FFF7EFFE7B68D86B7B6814331A000123BA
:100DC8000C21FFF72DFE7B685B7B062B0AD17B6825
:100DD80001225A777B680322DA757B681800FFF7CF
:100DE80061FF05E07B6800225A777B680022DA758C
:100DF8007B681800FFF701FF7B681800FFF7DAFE31
:100E08007B68D86B7B681A331A0001232421FFF70B
:100E180007FE7B68D86B7B681B331A0001234021CF
:100E2800FFF7FEFD7B681800FFF790FF7B68D86B23
:100E38007B681C331A0001231121FFF7F1FDC0461E
:100E4800BD4602B080BD80B582B000AF78600A00B0
:100E5800FB1C1A70FB1C1B78002B03D0FB1C1B7897
:100E6800022B21D1FB1C1B78002B02D17B689A68CE
:100E780001E07B685A687B681A607B684122DA76F1
:100E88007B68FF221A777B681B7F08229343DAB2BC
:100E98007B681A777B68FA1C292112785A547B6878
:100EA8002A22012199542FE0FB1C1B78012B03D027
:100EB800FB1C1B78032B27D1FB1C1B78012B02D1B1
:100EC8007B685A6801E07B689A687B681A607B686F
:100ED8000122DA767B68FF221A777B681B7F402223
:100EE8009343DAB27B681A777B681B7F202293438F
:100EF800DAB27B681A777B68FA1C292112785A546F
:100F08007B682A22022199547B6801211800FFF787
:100F1800FDFE012002F03EFB7B681800FFF7DEFDB6
:100F28007B68D86B7B681B331A0001234021FFF7CD
:100F380077FD7B681800FFF709FF7B68D86B7B6833
:100F48001C331A0001231121FFF76AFDC046BD4674
:100F580002B080BD80B500AF0D4B01220121180001
:100F680002F071FD0A4B00220121180002F06BFD0E
:100F7800012002F00FFB064B01220121180002F0AC
:100F880062FD642002F006FBC046BD4680BDC04637
:100F980000040050B0B586B000AF786002F0F0FAF7
:100FA80003007B611323FB1800221A707B68DB6B3C
:100FB80013257C1912211800FFF700FD0300237088
:100FC800164B4021180002F021FD031E04D17B19A5
:100FD8001B78082213400ED002F0D2FA0300FB60FF
:100FE800FA687B69D31A1A007B681A627B682A221E
:100FF800032199540EE002F0C3FA02007B69D21A69
:10100800FA23DB009A42D1D9FFF7A4FF7B682A2292
:1010180005219954BD4606B0B0BDC0460008005031
:1010280080B584B000AF78607B6800211800FFF7B6
:101038006DFE7B6830229A5C0F217B181A707B68E2
:10104800D86B7A1801232221FFF7EAFC7B68DB6B57
:101058000F211800FFF7B2FC03001A000E217B18BD
:101068001A707B1800221A707B68D86B7A180123D3
:101078000D21FFF7D5FC7B68DB6B22211800FFF7F9
:101088009DFC030019007B6830229954C046BD4678
:1010980004B080BD90B585B000AF78607B68DB6B2D
:1010A80013211800FFF78AFC030019007B6830221F
:1010B80099547B6830229B5C002B35D07B683022AA
:1010C8009B5C180004F09CFB03001A007B68DA6242
:1010D8000F243B1900221A70164B00220121180018
:1010E80002F0B1FC012002F055FA7B68D86B39197F
:1010F8006423012203F01CFD7B68D86B7B68D96AE6
:101108007B6830229B5C1A00642303F071FE012087
:1011180002F040FA074B01220121180002F093FC6B
:101128007B682A22042199547B68DB6A1800BD4633
:1011380005B090BD0004005080B584B000AF786061
:101148007B6838229A5C0B217B181A707B683822DE
:101158009B5C002B3DD07B68D86B7A180123222139
:10116800FFF75EFC7B68DB6B0E211800FFF726FC9F
:1011780003001A000A217B181A707B1880221A7043
:101188007B68D86B7A1801230D21FFF749FC7B682F
:10119800DB6B22211800FFF711FC030019007B68A4
:1011A800382299540023FB600CE07B68D86B7B687D
:1011B8005A6BFB68D21801230021FFF731FCFB684A
:1011C8000133FB607B6838229B5C1A00FB68934202
:1011D800EBDB7B6838229B5C1800BD4604B080BD01
:1011E80080B582B000AF78607B681800FFF7A4FF75
:1011F8007B6803211800FFF789FD7B681800FFF75B
:10120800C9FEC046BD4602B080BD000080B582B0B0
:1012180000AF78607B680D3319000123002200209D
:1012280000F0FCF87B680E3319000123012200202E
:1012380000F0F4F87B680F33190001230222002024
:1012480000F0ECF87B680833190004230022102012
:1012580000F0E4F87B68191D04230422102000F034
:10126800DDF87B685B7B052B03D97B685B7B0C2BEC
:1012780002D97B680A225A737B689B7B092B02D9A7
:101288007B6806229A737B68DB7B002B03D07B6824
:10129800DB7B042B02D97B680222DA737B689B68AC
:1012A8000D4A934204D97B689B680C4A934202D941
:1012B8007B680B4A9A607B685B680A4A934204D948
:1012C8007B685B68084A934202D97B68074A5A6080
:1012D800C046BD4602B080BDFF70C6090095BA0A77
:1012E8000083400AFF4CD20840A15B09C01C3D099D
:1012F80080B584B000AF78600A00FB1C1A704020EB
:1013080004F07EFA0300FB602E4B01220121180035
:1013180002F099FB2B4B01220221180002F093FBEB
:10132800FB687A68DA63FB68DB6B01211800FFF75A
:1013380045FB03001900FB6828229954FB68292201
:10134800FF219954FB68FC221A73FB6801221A7466
:10135800FB680B22DA74FB6823221A75FB680C22DF
:101368005A75FB6812229A74FB6808229A75FB6802
:1013780000221A76FB6808225A76FB680C225A76F5
:10138800FB6807229A76FB6809225A74FB683022A8
:1013980000219954FB68382200219954FB681800F1
:1013A800FFF734FFFB1C1A78FB6811001800FFF7E1
:1013B8004AFDFB681800FFF7DCFCFB681800BD4617
:1013C80004B080BD0004005080B582B000AF7860E2
:1013D8000A00FB1C1A707B6829229B5CFA1C127895
:1013E8009A4215D17B6828229B5C052B12D0FB1CE6
:1013F8001A787B6811001800FFF725FD7B68180034
:10140800FFF70EFE7B6805211800FFF77FFC02E05E
:10141800C04600E0C046BD4602B080BD90B585B06C
:1014280000AF0400396010001900FB1D221C1A705F
:10143800BB1D021C1A707B1D0A1C1A700C217B181C
:101448001E4A12781A70FB1D1B78DB001AB2BB1DEE
:101458001B781BB213431AB20E203B181A803B1894
:101468001B88DAB27B181A70FA239B0079180122BC
:10147800502000F015F903001A0001235340DBB295
:10148800002B01D0002315E0052002F083F8FA2391
:1014980098007B1D1A7839680300502000F0EAF99B
:1014A80003001A0001235340DBB2002B01D00023B4
:1014B80000E001231800BD4605B090BDE05A0008C1
:1014C800F0B58DB000AF0400396010001900FB1DA5
:1014D800221C1A70BB1D021C1A707B1D0A1C1A7074
:1014E8002F257B1900221A702E26BB1900221A708C
:1014F8007B1D1C78BB1D1A780C23F918FB1D187866
:101508002300FFF78BFF03001A00BB191A702D2365
:10151800FB1800221A707B1900221A7017E02F217D
:101528007B181B783A68D3181A787B181B780C211B
:101538007918CB5C9A4204D02D23FB1801221A702B
:101548000CE02F217B181A787B1801321A702F2390
:10155800FA187B1D12781B789A42E0D32D23FB18CA
:101568001B78002B38D0FB1D1B78DB005AB2BB1D43
:101578001B785BB213435BB2DAB21C23FB181A70F8
:101588002F23FB1800221A7010E02F203B181B781D
:101598003A68D2183B181B78013311781C22BA1804
:1015A800D1543B181A783B1801321A702F23FA18B5
:1015B8007B1D12781B789A42E7D37B1D1B78013379
:1015C800DAB21C23F9183223502000F069F803001E
:1015D8001A002E23FB181A70062001F0DBFF2E23B9
:1015E800FB181B781800BD460DB0F0BD80B500AFE4
:1015F800254B5A6B244B02210A435A63234B1A6822
:10160800224B23490A401A60204B1A681F4BA0211D
:1016180009020A431A601D4B5A681C4BC0210A4331
:101628005A601A4B1A6A194B1202120A1A62174B9D
:101638001A6A164BCC21C9050A431A62124BDA6B97
:10164800114B802189030A43DA63124B1A68114B44
:1016580001218A431A600F4B0F4A1A610D4B9A6891
:101668000C4B0E490A409A600A4BDA68094B0B4941
:101678000A40DA60074B1A68064B01210A431A60D0
:10168800C046BD4680BDC046001002400004005060
:10169800FF0FFFFF005400405B3D3000FF7FFFFF5E
:1016A80080B586B000AFB96011007B600F23FB18CE
:1016B800021C1A700E23FB180A1C1A7001F060FF36
:1016C80003003B611723FB1800221A701623FB182E
:1016D80003221A70664B1B680122134005D0644B25
:1016E8009A6980231B0213400DD0614B1A68604B26
:1016F80001218A431A605E4B1A685D4B01210A4337
:101708001A600023B0E00F23FB181B785A000E2341
:10171800FB181B781B0413431900554B80229204B5
:101728000A435A60524B5A68514B802189010A4337
:101738005A6079E001F024FF02003B69D31A7A6805
:101748009A4210D24A4B9A6980231B0213400AD04E
:10175800474B5A68464B8021C9010A435A60FFF734
:1017680045FF002380E0424B9B69022213400BD0C7
:101778001722BB181B78BA18591C11701A00BB68BD
:101788009B181A783A4B9A62394B9B69102213407E
:1017980016203A18391809781170002B44D0010026
:1017A8007B187A181278013A1A707B181B78002B6C
:1017B80029D02F4B5A682E4B8021C9010A435A6001
:1017C8002B4BDA692A4B10210A43DA61FFF70EFF27
:1017D8001723FB1800221A700F23FB181B785A00D6
:1017E8000E23FB181B781B0413431900204B80227F
:1017F80092040A435A601E4B5A681D4B8021890186
:101808000A435A6010E01A4B5A68194B8021C901E3
:101818000A435A60164BDA69154B10210A43DA61FC
:10182800FFF7E4FE00231FE01723FA180E23FB1826
:1018380012781B789A4200D27CE709E001F0A0FEFA
:1018480002003B69D31A7A689A4201D200230BE05E
:10185800074B9B6920221340F0D0054BDA69044BF3
:1018680020210A43DA6101231800BD4606B080BD75
:101878000054004080B586B000AFB96011007B60AD
:101888000F23FB18021C1A700E23FB180A1C1A706F
:1018980001F076FE03003B611723FB1800221A7043
:1018A800324B1B680122134001D1002359E00F235A
:1018B800FB181B785A000E23FB181B781B041A43CD
:1018C8002A4B2B490A435A60284B5A68274B8021D8
:1018D80089010A435A602FE001F052FE02003B6979
:1018E800D31A7A689A4210D2204B9A6980231B0235
:1018F800134008D01D4B5A681C4B8021C9010A436C
:101908005A60FFF773FE00232BE0184B9B690422F3
:10191800134017203A18391809781170002B0BD08A
:10192800124B596A3B181B783A18581C10701A0049
:10193800BB689B18CAB21A701723FA180E23FB1833
:1019480012781B789A42C7D3C046084B9B6920225D
:101958001340FAD0054BDA69044B20210A43DA61B7
:1019680001231800BD4606B080BDC04600540040A3
:101978000004000280B582B000AF042003F040FFED
:1019880003007B60A023DB051A68A023DB05802108
:1019980049000A431A60A023DB051A68A023DB0567
:1019A80005490A401A607B68180000F038F87B681F
:1019B8001800BD4602B080BDFFFDFFFF80B582B0B4
:1019C80000AF786001F0DCFD02007B681B68D21A6A
:1019D800FA239B009A4205D901F0D2FD02007B68E8
:1019E8001A6018E001F0CCFD02007B681B68D31A6E
:1019F800322B08D9A023DB055A69A023DB05102167
:101A08008A435A6107E0A023DB055A69A023DB0556
:101A180010210A435A61C046BD4602B080BD80B558
:101A280082B000AF786001F0ABFD02007B681A60FD
:101A3800C046BD4602B080BDB0B500AF01F024FD80
:101A480000F0C0F800F0A8F900F068F900F006F915
:101A580000F044F9042003F0D3FE03001A004D4BB4
:101A68001A604C4B1B68002B01D100F077FAE12378
:101A78005B02494A1900100001F01CFC0200474BA8
:101A88001A60464B1B68002B01D100F067FA414BE6
:101A98001C68042003F0B4FE030063603D4B1B6820
:101AA8005B68002B01D100F059FAFFF79FFD394B15
:101AB8001B685B683A4ADA60364B1B685B68394AD0
:101AC8001A61364B1B68212200219954002000F02E
:101AD8004BFA0200344B1A60334B1B689B7E18008C
:101AE80000F07EFF0200314B1A602F4B1A68294B19
:101AF8001B68927E1A702E4B01211800FFF7F8FB25
:101B080002002C4B1A60FFF735FF02002A4B1A60BF
:101B18002A4B180002F044F9244B1C6801F030FDF0
:101B2800030063631B4B1C6801F02AFD0300E3629A
:101B3800184B1B685C6801F023FD030063601B4BB6
:101B48001B681F4A1100180001F0C3F9134B1868ED
:101B5800164B1968174B1A68134B1B6800F054FD95
:101B6800144B1B6801211800FFF72EFC114B186855
:101B78000E4B19680C4B1B681A0000F0C5FE0E4B83
:101B88001B681800FFF71AFF0C4B180002F008F941
:101B9800C046D4E7540100200024F400400100208E
:101BA8000054004078000020500100204801002027
:101BB800DC0000204C01002044010020CC00002063
:101BC800B80B000090B593B000AF14243B1918006F
:101BD80034231A00002103F0D9FE3B1D18001023FE
:101BE8001A00002103F0D2FE80239B00180002F0A7
:101BF800E7F83B190A221A603B1980225200DA6082
:101C080021007B1800221A617B1840225A617B1838
:101C180001229A617B180022DA617B18180002F011
:101C28000FF9031E01D000F099F93B1D07221A6035
:101C38003B1D00225A603B1D00229A603B1D00227A
:101C4800DA603B1D0021180002F00AFC031E01D0D7
:101C580000F084F9C046BD4613B090BD80B500AF12
:101C68001B4B1C4A1A601A4B1B4A5A60184B00221D
:101C78009A60174B0122DA60154B00221A61144B47
:101C880000225A61124B00229A61114B0022DA613C
:101C98000F4B00221A620E4B180001F0F1FE031ED2
:101CA80001D000F05BF90A4B0021180001F08EFF0B
:101CB800031E01D000F052F9054B0021180001F075
:101CC800D1FF031E01D000F049F9C046BD4680BDD2
:101CD80078000020005400405B3D300080B500AF24
:101CE8000B4B0C4A1A600A4B06225A60084B0A4AE8
:101CF800DA60074BFA2292009A60054B180001F04F
:101D0800FDFF031E01D000F029F9C046BD4680BD85
:101D1800CC00002000300040FF0F000080B500AF6D
:101D28001B4B1C4A1A601A4B822252005A60184BED
:101D380000229A60164BE022D200DA60144B00228F
:101D48001A61134B00225A61114B802292009A614A
:101D58000F4B1822DA610E4B00221A620C4B00223C
:101D68005A620B4B00229A62094B0722DA62084B2F
:101D780000221A63064B08225A63054B180002F02A
:101D88001FFE031E01D000F0E9F8C046BD4680BD25
:101D9800DC0000200030014090B589B000AF0C2471
:101DA8003B19180014231A00002103F0EFFD424BE1
:101DB8005A6B414B01210A435A633F4B5B6B01222B
:101DC8001340BB60BB683C4B5A6B3B4B02210A4338
:101DD8005A63394B5B6B022213407B607B68364B3E
:101DE8005A6B354B04210A435A63334B5B6B04220D
:101DF80013403B603B68B8235900A023DB05002251
:101E0800180001F020FE2D4B00220321180001F0DC
:101E18001AFE2B4B00224021180001F014FE3B193A
:101E2800B82252001A603B1901225A603B1900225D
:101E38009A603B190022DA603A19A023DB051100E9
:101E4800180001F07FFC3B1903221A603B1901229C
:101E58005A603B1900229A603B190022DA603B194C
:101E6800164A1900100001F06DFC3B1904221A6093
:101E78003B1900225A603B1900229A603B190F4A0D
:101E88001900100001F05EFC21007B1840221A6046
:101E98007B1801225A607B1800229A607B18002266
:101EA800DA607B18064A1900100001F04BFCC046A6
:101EB800BD4609B090BDC046001002400004005065
:101EC80000080050B0B500AF234B1B685B7E132B96
:101ED8000FD9214B1B6814220021180003F056FD6E
:101EE8001D4B1B6800225A761B4B1B6820220021C1
:101EF8009954194B1C68184B1B685A7E511CC9B25F
:101F08005976150001F060FA03006355124B1A6800
:101F1800114B1B685B7E013BD35C7F2B04D10E4BBE
:101F28001B682022012199540B4B1B681B787E2BC0
:101F38000FD0094B1B6814220021180003F026FD5E
:101F4800054B1B6800225A76034B1B682022002190
:101F58009954C046BD46B0BD4001002080B500AFD1
:101F680072B6C046C046FDE780B584B000AF020037
:101F7800FB1D1A70242003F043FC0300FB60FB6880
:101F880000221A80FB680022DA60FB6800221A61CE
:101F9800FB6800229A82FB6800221A72FB68002202
:101FA8005A80FB6800229A75FB680022DA60FB6899
:101FB80000221A61FB6800229A82FB6800221A71CB
:101FC800FB6800225A71FB6800229A71FB680022A4
:101FD800DA71FB6800225A80FB6800229A75FB6858
:101FE8000022DA75FB6800221A76FB6800225A760E
:101FF800FB68212200219954FB6820220021995472
:10200800FB680522DA76FB68FA1D12789A7601F0E9
:10201800B7FA0200FB68DA61FB681B331900012379
:1020280003220020FFF7FAF9FB681A33190001238D
:1020380004220020FFF7F2F9FB681800BD4604B03F
:1020480080BD0000B0B586B000AFF860B9607A60B6
:102058003B601723FB1800221A701623FB1808226E
:102068001A70BB681B7A082B03D9BB681B7A0D2B27
:1020780001D900237AE21723FC18FA68BB6811001B
:10208800180000F05FFE03002370BB681B78252B47
:1020980014DC102B09DA4CE2903B252B00D948E2DE
:1020A8009A00E44BD3181B689F46103B152B00D9A8
:1020B8003FE29A00E04BD3181B689F46B52B00DD22
:1020C80037E2902BE8DA34E217203B181B783A18ED
:1020D800591C11701A00FB689B1804221A7004001E
:1020E8003B181B78FA68D2187B685B6819001000E7
:1020F80000F0AEFE20003B183A18127804321A702D
:102108003B181A783B1801321A7013E217203B1853
:102118001B783A18591C11701A00FB689B18042286
:102128001A7004003B181B78FA68D2187B689B6801
:102138001900100000F08CFE20003B183A181278A5
:1021480004321A703B181A783B1801321A70F1E100
:1021580017203B181B783A18591C11701A00FB6895
:102168009B1801221A707B685A7B3B181B78391818
:10217800581C08701900FB685B18063AD2B21A702E
:10218800D8E117203B181B783A18591C11701A000F
:10219800FB689B1801221A703B181B783A18591CC7
:1021A80011701A00FB689B187A68D27B1A70C1E11B
:1021B80017203B181B783A18591C11701A00FB6835
:1021C8009B1801221A707B689A7B3B181B78391878
:1021D800581C08701900FB685B180132D2B21A70DB
:1021E800A8E117203B1800221A703B181B783A18F0
:1021F800591C11701A00FB689B187E221A703B1834
:102208001B783A18591C11701A00FB689B18052294
:102218001A703B181B783A18591C11701A00FB6881
:102228009B18BA68127C1A703B181B783A18591C0C
:1022380011701A00FB689B1810221A703B181B7843
:102248003A18591C11701A00FB689B1800221A7062
:102258003B181B783A18591C11701A00FB689B1818
:1022680002221A703B181B783A18591C11701A0070
:10227800FB689B1805221A703B181B783A18591CE2
:1022880011701A00FB689B18BA68127C1A7051E129
:10229800BB685B6806331A783B68DA76BB685B68AC
:1022A80007331A783B689A763B689A7EBB681A743B
:1022B80017257C19FA68BB681100180000F042FD68
:1022C8000300237028003B181B783A18591C11701A
:1022D8001A00FB689B1805221A703B181B783A18DD
:1022E800591C11701A00FB689B18BA68127C1A7086
:1022F8003B681B331900012303220020FFF7E0F895
:102308003B681A331900012304220020FFF7D8F88C
:1023180010E117203B181B783A18591C11701A0045
:10232800FB689B1804221A70BB685A6804003B18A3
:102338001B78D318180000F059FD03001A007B68B9
:102348009A603B193A19127804321A707B6808337C
:102358001900042300221020FFF7B2F87B68292215
:102368009A5C7B6811001800FEF76DFD7B68180009
:10237800FEF7FFFCDEE017203B181B783A18591CC3
:1023880011701A00FB689B1804221A70BB685A68FF
:1023980004003B181B78D318180000F027FD030031
:1023A8001A007B685A603B193A19127804321A707D
:1023B8007B68191D042304221020FFF781F87B682D
:1023C80029229A5C7B6811001800FEF73CFD7B68A7
:1023D8001800FEF7CEFCADE017203B181B783A1822
:1023E800591C11701A00FB689B1801221A70BB68EF
:1023F8005A683B181B783918581C0870D3181B7872
:10240800013BDAB27B689A737B680E3319000123AB
:1024180001220020FFF754F87B6829229A5C7B6828
:1024280011001800FEF70FFD7B681800FEF7A1FCED
:1024380080E0C046605B0008F85B000817203B1886
:102448001B783A18591C11701A00FB689B18012256
:102458001A70BB685A683B181B783918581C0870E2
:10246800D3181B780633DAB27B685A737B680D334E
:102478001900012300220020FFF722F87B68292297
:102488009A5C7B6811001800FEF7DDFC7B68180079
:10249800FEF76FFC4EE017203B181B783A18591CC2
:1024A80011701A00FB689B1801221A70BB685A68E1
:1024B8003B181B783918581C0870D3181A787B6891
:1024C800DA737B680F331900012302220020FEF71C
:1024D800F7FF7B6829229A5C7B6811001800FEF7D9
:1024E800B2FC7B681800FEF744FC23E014217B183B
:1024F80012221A70BB685B685A797B185A7079186F
:102508001623FB1818780A230222FFF7C9F80300DC
:102518001A003B685A763B68597E1722BB181B780D
:10252800BA18581C10701A00FB689B180A001A7019
:1025380000E0C04617243B191A78FB681100180000
:1025480000F0CAFB0300190020003B183A18127863
:102558008A181A703B181B783A18591C11701A00FF
:10256800FB689B187F221A703B181B781800BD4621
:1025780006B0B0BD80B584B000AF78600A00FB1C1F
:102588001A700F203B1808221A700C217B18102291
:102598001A8079183B1818780A230222FFF780F866
:1025A80003001A0001235340DBB2002B09D0FB1CA7
:1025B8001A787B680021180003F0E8F9FB1C1B78E7
:1025C8001EE0062000F0E6FFFB1C1A7879680F234E
:1025D800FB1818780A23FFF74DF903001A000123A6
:1025E8005340DBB2002B09D0FB1C1A787B68002112
:1025F800180003F0CBF9FB1C1B7801E0FB1C1B78CF
:102608001800BD4604B080BD90B587B000AFF86033
:10261800B9607A603B60FB6820229B5C01225340D2
:10262800DBB2002B60D1FB682022002199540120E5
:1026380000F0B0FFFA68FB685B7E1900100000F03C
:10264800FBFA031E09D0FB6814220021180003F0CE
:102658009DF9FB6800225A7647E0F968FB685A7EC4
:10266800BB68180000F010FC192003F0C9F803003B
:102678001A00FB685A61FB6858693B687A68B96850
:10268800FFF7E0FC03001A00FB681A761723FB1813
:1026980000221A700EE0FB685A6917243B191B7850
:1026A800D3181B78180000F061FE3B191A783B1903
:1026B80001321A70FB681B7E1722BA1812789A42E8
:1026C800E9D3FB685B69180003F0A4F8FB681422DF
:1026D8000021180003F05AF9FB6800225A76BB68FB
:1026E800180000F0EBFA00E0C046BD4607B090BD08
:1026F80080B584B000AFF860B9607A60192003F043
:102708007FF803001A00FB685A63FB68586B7B6804
:10271800FA68B968FFF796FC03001900FB683822CD
:102728009954FB6800211800FEF78DFBFB68180020
:10273800FEF756FDFB6801211800FEF784FBFB68D5
:102748005B6B180003F066F8C046BD4604B080BD58
:10275800B0B584B000AF78600F243B1900221A701E
:102768000E257B1919221A707B6812332222002148
:10277800180003F00BF920003B181B783A18591C75
:1027880011701A007B689B187E229A743B181B787C
:102798003A18591C11701A007B689B1805229A7404
:1027A8003B181B783A18591C117019007B681A7C61
:1027B8007B685B189A743B181B783A18591C11707F
:1027C8001A007B689B1811229A743B181B783A18D8
:1027D800591C11701A007B689B1800229A743B18C8
:1027E8001B783A18591C11701A007B689B187A19C3
:1027F80012789A747B6812331A0004003B181B780D
:10280800D2187B191B7819001000FFF7B3FE0300DC
:1028180019003B193A1912788A181A707B68123312
:102828001A003B191B781900100000F055FA030034
:1028380019003B193A1912788A181A703B191B7833
:102848003A19591C11701A007B689B187F229A74D8
:10285800C046BD4604B0B0BD80B582B000AF786058
:1028680039603B6812331A007B685A637B683822E8
:10287800222199547B6800211800FEF7E4FA7B684E
:102888001800FEF7ADFC7B682A229B5C032B06D15F
:10289800A023DB0501222021180001F0D4F87B6871
:1028A80001211800FEF7CFFAA023DB050022202122
:1028B800180001F0C8F8C046BD4602B080BD80B51A
:1028C80084B000AFF860B9607A60FB68DA7BFB68B7
:1028D8001B7C9A4203D0FB6805225A7410E0FB68FF
:1028E8001B78112B06D1FA68BB6811001800FFF796
:1028F800B3FF05E07A68F968BB681800FFF7F8FECF
:10290800BD4604B080BD000080B584B000AFF8605B
:10291800B9607A60314B4021180001F077F8031E46
:1029280057D0FB681800FEF711FAFB681800FEF78D
:10293800B1FB0200FB68DA62FB6830229B5C002B6B
:1029480008D1FB6829229A5CFB6811001800FEF781
:102958007AFA3FE0FB68DA6AFB6830215B5C1900B1
:10296800100000F069F9031E08D0FB6829229A5C60
:10297800FB6811001800FEF766FA2BE0A023DB05C0
:1029880001224021180001F05EF8FB68D96AFB6853
:1029980030229A5CBB68180000F076FA7A68F96809
:1029A800BB681800FFF78BFFBB68180000F046F8FB
:1029B800FB68DB6A180002F02DFFFB68302200215B
:1029C8009954A023DB0500224021180001F03BF8B0
:1029D80000E0C046BD4604B080BDC04600080050B7
:1029E80080B584B000AF0200FB1D1A70382002F0D9
:1029F80007FF0300FB60FB6800225A70FB6808228F
:102A08005A74FB6800221A70FB68FA1D12781A744F
:102A1800084B1A68074B8021C9020A431A60054B04
:102A28001A68044B04490A401A60FB681800BD463E
:102A380004B080BD00040050FFFFF7FF80B582B0EE
:102A480000AF78607B6800221A707B6800229A8148
:102A58007B6800225A817B6800229A737B6808226F
:102A68005A747B680022DA73C046BD4602B080BD46
:102A780080B584B000AF78600A00FB1C1A707B68D0
:102A880001331B78052B13D10323FB600AE0FB6895
:102A98007A68D3181B787F2B01D109230BE0FB68D8
:102AA8000133FB60FB1C1B78FA689A42EFDB01E0FC
:102AB800042300E004231800BD4604B080BD80B59F
:102AC80082B000AF78600A00FB1C1A70FB1C1B78F0
:102AD800062B11D97B681B787E2B0BD1FB1C1B782E
:102AE800013B7A68D3181B787F2B01D1022304E0BD
:102AF800012302E0032300E008231800BD4602B0CA
:102B080080BDF0B585B000AF78600A00FB1C1A7074
:102B1800FB1C1B78023B7A68D3181B781A000E2519
:102B28007B1912021A80FB1C1B78033B7A68D318A6
:102B38001B7819007B197A1912880A431A807B6856
:102B48005A1CFB1C1B78043BDBB20C26BC19190071
:102B5800100000F00FF803002380BA197B191288BF
:102B68001B889A4201D1002300E006231800BD46C5
:102B780005B0F0BD80B584B000AF78600A00FB1CDA
:102B88001A700A23FB182B4A1A800C23FB18002200
:102B98001A800F23FB1800221A703CE00F23FB1841
:102BA8001B787A68D3181B781B0299B20C22BB18C1
:102BB800BA1812884A401A800E23FB1800221A708D
:102BC8001EE00C217B1800229B5E002B0CDA7B1880
:102BD8001B885B001AB20A23FB1800201B5E5340B7
:102BE8001AB27B181A8005E00C23FA18FB181B8808
:102BF800DB1813800E217B181A787B1801321A70A3
:102C08000E23FB181B78072BDBD90F217B181A78AA
:102C18007B1801321A700F23FA18FB1C12781B78E4
:102C28009A42BBD30C23FB181B881800BD4604B07E
:102C380080BDC04621100000B0B584B000AF7860F8
:102C48000A00FB1C1A700F257C19FB1C1A787B687C
:102C580011001800FFF733FF030023707B191B785E
:102C6800022B02D07B191B7824E00E257C19FB1C53
:102C78001A787B6811001800FFF7FAFE030023702A
:102C88007B191B78092B02D07B191B7812E00D25C4
:102C98007C19FB1C1A787B6811001800FFF731FFBC
:102CA800030023707B191B78002B02D07B191B783B
:102CB80000E000231800BD4604B0B0BD80B582B066
:102CC80000AF78607B6800221A707B6808225A740B
:102CD800C046BD4602B080BD80B584B000AF786004
:102CE8000A00FB1C1A707B685A1CFB1C1B78013BF2
:102CF800DBB219001000FFF73DFF03001A000A219C
:102D08007B181A800C203B187A1812881A80FB1C32
:102D18001B78FA1C591C11701A007B689B183A180A
:102D280012781A70FB1C1B78FA1C591C11701A00B7
:102D38007B689B183A1852781A7002231800BD460F
:102D480004B080BD80B584B000AF786039600F21D1
:102D58007B1800221A707B681B78002B02D17B1825
:102D68001B783EE07B681B7C002B03D10F23FB18EC
:102D78001B7836E00F203B181B783A18591C117045
:102D88001A003B689B187E221A703B181B783A1869
:102D9800591C11701A003B689B1805221A703B18C1
:102DA8001B783A18591C11701A003B689B187A68EE
:102DB800127C1A703B181B783A18591C11701A00AB
:102DC8003B689B187A6812781A703B181B783A1877
:102DD800591C11701A003B689B1800221A703B1886
:102DE8001B781800BD4604B080BD000080B584B0D3
:102DF80000AF78600023FB60FB687A6812781343A1
:102E0800FB60FA687B6801331B781B021343FB6085
:102E1800FA687B6802331B781B041343FB60FA686B
:102E28007B6803331B781B061343FB60FB68074969
:102E3800181CFDF7F9FB031CFB60FB68181CFDF769
:102E480031FD03001800BD4604B080BD002474495C
:102E580080B584B000AF786039603868FDF742FD0E
:102E6800031C0849181CFDF7BFFA031CFB600C2360
:102E7800F9187B680422180002F0CEFDC046BD4652
:102E880004B080BD0024744980B584B000AFF860F8
:102E9800B960FB1D1A70BB68002B14D0FB1D1B7892
:102EA800002B12D0BB6803331A78FB681A70BB6812
:102EB8009A78FB68DA73FB68FA1D12781A72FB6855
:102EC800BA685A6002E0C04600E0C046BD4604B099
:102ED80080BD80B582B000AF7860396000F050FBEB
:102EE80002007B685B6BD31A3A689A4208D27B6807
:102EF8001800FFF72DFC00F043FB02007B685A63C3
:102F0800C046BD4602B080BD80B582B000AF0F4B51
:102F18001A6C0E4B01210A431A640C4B1B6C0122DC
:102F280013407B607B68094BDA6B084B80214905AD
:102F38000A43DA63054BDA6B80235B0513403B6079
:102F48003B68C046BD4602B080BDC0460010024086
:102F580090B591B000AF78602C23FB1818001423AB
:102F68001A00002102F012FD14243B19180018233E
:102F78001A00002102F00AFD7B681B68224A93426E
:102F88003DD13B1920221A603B1900229A603B1957
:102F9800180001F0EFFB031E01D0FEF7DFFF1B4B0B
:102FA8005A6B1A4B02210A435A63184B5B6B022275
:102FB80013403B613B692C217B18C0221A607B18A7
:102FC80012225A607B1800229A607B180022DA606D
:102FD8007B1806221A617B180D4A1900100000F0B0
:102FE800B1FB0A4BDA6B094B802189030A43DA6388
:102FF800064BDA6B80239B031340FB60FB68C046DB
:10300800BD4611B090BDC0460054004000100240BB
:103018000004005090B58BB000AF786014243B19C1
:10302800180014231A00002102F0B0FC7B681B680A
:103038002C4A934252D12C4B1A6C2B4B80214901BC
:103048000A431A64284B1A6C80235B0113403B61C6
:103058003B69254B5A6B244B01210A435A63224B87
:103068005B6B01221340FB60FB681F4B5A6B1E4BC6
:1030780002210A435A631C4B5B6B02221340BB605C
:10308800BB683B19C02252011A603B1902225A60E0
:103098003B1900229A603B190022DA603B19002292
:1030A8001A613A19A023DB051100180000F04AFB49
:1030B80021007B1808221A607B1802225A607B18AC
:1030C80000229A607B180022DA607B1800221A61BD
:1030D8007B18064A1900100000F034FBC046BD46B4
:1030E8000BB090BD003001400010024000040050B9
:1030F80080B500AFC046FDE780B500AFC046FDE72C
:1031080080B500AFC046BD4680BD80B500AFC046A3
:10311800BD4680BD80B500AF00F020FAC046BD4670
:1031280080BD000080B586B000AF7860144A154BAA
:10313800D31A7B617B693B61134B1B68002B02D15F
:10314800114B124A1A60104B1A687B68D3183A69F7
:103158009A4207D202F034FC03000C221A600123C1
:103168005B4209E0084B1B68FB60074B1A687B68E9
:10317800D218054B1A60FB681800BD4606B080BD22
:10318800002000200004000058010020A8020020B0
:1031980080B500AFC046BD4680BD000080B582B096
:1031A80000AF0200FB1D1A70FB1D1B787F2B09D88E
:1031B800FB1D1B781A001F231A40044B0121914064
:1031C8000A001A60C046BD4602B080BD00E100E0BA
:1031D80080B500AFA023DB051A68A023DB053049C2
:1031E8000A401A60A023DB051A68A023DB058021AA
:1031F80089030A431A60A023DB051A68A023DB05AC
:1032080028490A401A60A023DB051A68A023DB05B9
:10321800802109030A431A60A023DB055A6AA02308
:10322800DB05802149000A435A62A023DB055A6A5C
:10323800A023DB051C490A405A62A023DB055A6A11
:10324800A023DB0519490A405A62A023DB055A6A04
:10325800A023DB0516490A405A62A023DB055A6AF7
:10326800A023DB0510210A435A62A023DB055A6A12
:10327800A023DB0520218A435A62A023DB055A6A72
:10328800A023DB0540218A435A62A023DB055A6A42
:10329800A023DB0580218A435A62C046BD4680BD13
:1032A800FFFFEFFFFFFFFBFFFFFDFFFFFFFBFFFF40
:1032B800FFF7FFFF80B584B000AF78603960002366
:1032C800FB60042002F09CFA0300BB60BB68002B83
:1032D80041D0BB6814220021180002F057FBBB68DC
:1032E800202200219954FFF773FF1D4B1A6C1C4BC9
:1032F8008021C9010A431A647B681A4A93420BD198
:10330800174B5A6D164B01218A435A65144B5A6D57
:10331800134B02210A435A6539687868FCF7ECFEBA
:103328000300FB60FB689AB20F4BDA600E4B0C226D
:103338001A60BB6800221A760B4B1A680A4B2021C8
:103348000A431A601B20FFF729FF074B1A68064B30
:1033580001210A431A60BB681800BD4604B080BD4D
:10336800001002400024F4000038014080B582B00B
:1033780000AF0200FB1D1A70104B5A690F4B8021D9
:1033880089000A435A61C0460D4BDB69802213400D
:10339800FAD00B4BFA1D12789A62C046084BDB69CB
:1033A80040221340FAD0054B5A69044B05490A409C
:1033B8005A61C046BD4602B080BDC04600040050F8
:1033C80000380140FFFDFFFF80B582B000AF184B09
:1033D800DB6908221A40FB1D511E8A411A70144BE2
:1033E800DB6920221A40BB1D511E8A411A70BB1D81
:1033F8001B78002B03D1FB1D1B78002B12D0FB1D63
:103408001B78002B05D00A4B1A6A094B08210A437E
:103418001A62074B5B6ADAB27B1D1A707B1D1B7838
:10342800DBB200E000231800BD4602B080BDC046F4
:10343800003801400D488546FFF7AAFE0C480D49A3
:103448000D4A002302E0D458C4500433C4188C42F7
:10345800F9D30A4A0A4C002301E013600432A2425D
:10346800FBD302F0B3FAFEF7E7FAFEE700200020EC
:10347800000000205C000020A05C00085C00002028
:10348800A8020020FEE7000080B582B000AFFB1D57
:1034980000221A700B4B1A680A4B802149000A4314
:1034A8001A60032000F010F8031E03D0FB1D012250
:1034B8001A7001E0FFF728FDFB1D1B781800BD46B8
:1034C80002B080BD0020024090B585B000AF7860A2
:1034D8000F23FB1800221A701D4B1B78002B2BD0D2
:1034E8001C4B1C681A4B1B781900FA239800FCF730
:1034F80003FE030019002000FCF7FEFD030018007E
:1035080000F013F9031E12D17B68032B0AD87968DF
:1035180001235B420022180000F0F2F80E4B7A6893
:103528001A600DE00F23FB1801221A7008E00F2320
:10353800FB1801221A7003E00F23FB1801221A70EE
:103548000F23FB181B781800BD4605B090BDC04678
:1035580008000020000000200400002080B500AF13
:10356800054B1B781A00054B1B68D218034B1A60D1
:10357800C046BD4680BDC046080000205C01002052
:1035880080B500AF024B1B681800BD4680BDC04621
:103598005C01002080B584B000AF7860FFF7F0FFD1
:1035A8000300BB607B68FB60FB68013305D00A4BF6
:1035B8001B781A00FB689B18FB60C046FFF7E0FF0A
:1035C8000200BB68D31AFA689A42F7D8C046C046C8
:1035D800BD4604B080BDC0460800002090B583B049
:1035E80000AF02003960FB1D1A70FB1D1B787F2B92
:1035F80028D82F4AFB1D1B785BB29B08C0339B0061
:103608009B58FA1D1278110003220A40D200FF21AC
:1036180091400A00D2431A4011003B689B01FF22E7
:103628001A40FB1D1B78180003230340DB009A4057
:103638001F48FB1D1B785BB29B080A43C0339B00E5
:103648001A5031E01B4AFB1D1B7819000F230B4051
:10365800083B9B0806339B00D31804331B68FA1DEC
:103668001278110003220A40D200FF2191400A007B
:10367800D2431A4011003B689B01FF221A40FB1DF0
:103688001B78180003230340DB009A400948FB1D00
:103698001B781C000F232340083B9B080A43063372
:1036A8009B00C31804331A60C046BD4603B090BDE2
:1036B80000E100E000ED00E080B582B000AF786086
:1036C8007B685A1E80235B049A4201D3012310E0D1
:1036D8000A4B7A68013A5A6001235B4203211800B9
:1036E800FFF77CFF054B00229A60044B07221A6003
:1036F80000231800BD4602B080BDC04610E000E0BF
:1037080080B584B000AFB9607A600F217B18021CC5
:103718001A70BA687B181B785BB211001800FFF7A3
:103728005DFFC046BD4604B080BD80B582B000AF25
:1037380078607B681800FFF7BFFF03001800BD46DC
:1037480002B080BD80B586B000AF786039600023D4
:103758007B6147E13B681B6801217A6991400A0057
:103768001340FB60FB68002B00D138E13B685B68C5
:1037780003221340012B05D03B685B6803221340EA
:10378800022B30D17B689B683B617B695B0003221D
:103798009A401300DA433B6913403B613B68DA689F
:1037A8007B695B009A4013003A6913433B617B686D
:1037B8003A699A607B685B683B6101227B699A4041
:1037C8001300DA433B6913403B613B685B681B09A4
:1037D80001221A407B699A4013003A6913433B61FE
:1037E8007B683A695A603B685B6803221340032B85
:1037F80017D07B68DB683B617B695B0003229A40DA
:103808001300DA433B6913403B613B689A687B6964
:103818005B009A4013003A6913433B617B683A693D
:10382800DA603B685B6803221340022B23D17B6973
:10383800DA087B6808329200D3583B617B6907221B
:1038480013409B000F229A401300DA433B69134050
:103858003B613B681A697B6907210B409B009A40D2
:1038680013003A6913433B617B69DA087B680832C5
:1038780092003969D1507B681B683B617B695B00AA
:1038880003229A401300DA433B6913403B613B68CB
:103898005B6803221A407B695B009A4013003A690F
:1038A80013433B617B683A691A603B685A68C023D6
:1038B8009B02134000D192E0504A7B699B08183361
:1038C8009B009B583B617B6903221340DB000F225E
:1038D8009A401300DA433B6913403B617A68A0239E
:1038E800DB059A4213D07B68454A93420DD07B682A
:1038F800444A934207D07B68434A934201D1032349
:1039080006E0052304E0022302E0012300E000238F
:103918007A6903210A40D20093403A6913433B6114
:1039280036497B699B0818339B003A695A50334BD8
:103938001B683B61FB68DA433B6913403B613B68AA
:103948005A6880235B03134003D03A69FB6813432A
:103958003B612A4B3A691A60284B5B683B61FB68FC
:10396800DA433B6913403B613B685A6880239B03F9
:10397800134003D03A69FB6813433B611F4B3A6914
:103988005A601E4A8423D3583B61FB68DA433B697B
:1039980013403B613B685A6880239B02134003D065
:1039A8003A69FB6813433B61144984223B698B5095
:1039B800124A8023D3583B61FB68DA433B691340C2
:1039C8003B613B685A6880235B02134003D03A6925
:1039D800FB6813433B61094980223B698B507B6933
:1039E80001337B613B681A687B69DA40131E00D09B
:1039F800B0E6C046C046BD4606B080BD00180240CD
:103A08000004005000080050000C005080B584B03D
:103A180000AF78600A00BB1C1A807B681B69BA1C5F
:103A28001288134004D00F23FB1801221A7003E0F8
:103A38000F23FB1800221A700F23FB181B7818009D
:103A4800BD4604B080BD80B582B000AF7860080084
:103A58001100BB1C021C1A807B1C0A1C1A707B1CE0
:103A68001B78002B04D0BB1C1A887B689A6103E082
:103A7800BB1C1A887B689A62C046BD4602B080BDEE
:103A880080B582B000AF78607B68002B01D101233C
:103A98008FE07B6841229B5CDBB2002B07D17B68FF
:103AA8004022002199547B681800FFF751FA7B687F
:103AB8004122242199547B681B681A687B681B681B
:103AC80001218A431A607B685A687B681B683B49F6
:103AD8000A401A617B681B689A687B681B683849CA
:103AE8000A409A607B68DB68012B08D17B689A687A
:103AF8007B681B68802109020A439A6007E07B689B
:103B08009A687B681B68842109020A439A607B686B
:103B1800DB68022B09D17B681B685A687B681B68C5
:103B2800802109010A435A6007E07B681B685A68CC
:103B38007B681B6823490A405A607B681B685A687F
:103B48007B681B6820490A435A607B681B68DA68EF
:103B58007B681B681A490A40DA607B681A697B68C7
:103B68005B691A4311007B689B691A027B681B68B2
:103B78000A43DA607B68D9697B681A6A7B681B68C4
:103B88000A431A607B681B681A687B681B680121F6
:103B98000A431A607B6800225A647B68412220210C
:103BA80099547B6800221A637B6842220021995449
:103BB80000231800BD4602B080BDC046FFFFFFF0DD
:103BC800FF7FFFFFFFF7FFFF0080000280B582B094
:103BD80000AF786039607B6841229B5CDBB2202BA8
:103BE80038D17B6840229B5C012B01D1022332E053
:103BF8007B684022012199547B68412224219954F1
:103C08007B681B681A687B681B6801218A431A60F5
:103C18007B681B681A687B681B6811490A401A6030
:103C28007B681B6819687B681B683A680A431A60D6
:103C38007B681B681A687B681B6801210A431A6045
:103C48007B684122202199547B68402200219954A5
:103C5800002300E002231800BD4602B080BDC04624
:103C6800FFEFFFFF80B584B000AF786039607B68F4
:103C780041229B5CDBB2202B39D17B6840229B5CC4
:103C8800012B01D1022333E07B68402201219954A2
:103C98007B684122242199547B681B681A687B68D9
:103CA8001B6801218A431A607B681B681B68FB60DC
:103CB800FB68114A1340FB603B681B02FA68134318
:103CC800FB607B681B68FA681A607B681B681A6867
:103CD8007B681B6801210A431A607B684122202106
:103CE80099547B68402200219954002300E0022364
:103CF8001800BD4604B080BDFFF0FFFF80B584B05A
:103D080000AF78607B68002B01D101233DE07B6820
:103D18001B68204A1A607B681B681F4A1A607B6808
:103D28001B687A6852685A607B681B687A68926870
:103D38009A60FFF725FC0300FB600EE0FFF720FC0C
:103D48000200FB68D31A312B07D97B681B68DB6834
:103D58000722134001D0032317E07B681B68DB6848
:103D680007221340EAD17B681B681A697B68DB6805
:103D78009A4205D07B681B687A68D2681A6103E0AA
:103D88007B681B68054A1A6000231800BD4604B00A
:103D980080BDC046CCCC000055550000AAAA000042
:103DA80080B582B000AF78607B681B68034A1A60F0
:103DB80000231800BD4602B080BDC046AAAA000074
:103DC80080B584B000AF7860194B1B68194A13405E
:103DD8001900174B7A680A431A607A6880239B0097
:103DE8009A421FD1144B1A6813005B009B185B00A2
:103DF80012491800FCF780F903000133FB6008E062
:103E0800FB68002B03D0FB68013BFB6001E0032348
:103E180009E0074B5A698023DB001A408023DB0046
:103E28009A42EDD000231800BD4604B080BDC046BC
:103E380000700040FFF9FFFF0000002040420F0023
:103E480080B588B000AF78607B68002B01D1012372
:103E5800F3E27B681B680122134000D17CE0C34B6E
:103E68009B6838221340BB61C04BDB6803221340B8
:103E78007B61BB69102B02D17B69032B02D0BB6924
:103E8800082B0BD1B94B1A6880239B02134062D0D0
:103E98007B685B68002B5ED10123CEE27B685A68A1
:103EA80080235B029A4207D1B04B1A68AF4B80213E
:103EB80049020A431A6020E07B685A68A023DB02A3
:103EC8009A420ED1A94B1A68A84B8021C9020A430D
:103ED8001A60A64B1A68A54B802149020A431A604A
:103EE8000BE0A24B1A68A14BA1490A401A609F4BEC
:103EF8001A689E4B9F490A401A607B685B68002BD2
:103F080014D0FFF73DFB03003B6108E0FFF738FBE7
:103F180002003B69D31A642B01D903238DE2934B2A
:103F28001A6880239B021340F0D015E0FFF728FBA6
:103F380003003B6108E0FFF723FB02003B69D31A4B
:103F4800642B01D9032378E2884B1A6880239B02EB
:103F58001340F0D100E0C0467B681B680222134082
:103F680000D199E0814B9B6838221340BB617F4B9D
:103F7800DB68032213407B61BB69102B02D17B698C
:103F8800022B02D0BB69002B35D1784B1A688023ED
:103F9800DB00134005D07B68DB68002B01D10123CF
:103FA8004BE2724B5B68744A134019007B685B698B
:103FB8001A026E4B0A435A60BB69002B12D16B4B35
:103FC8001B686E4A134019007B681A69674B0A43DD
:103FD8001A60664B1B68DB0A07221340684ADA40FE
:103FE800684B1A60684B1B681800FFF76DFA031ED0
:103FF80051D0012321E27B68DB68002B30D05B4B7A
:104008001B685E4A134019007B681A69574B0A43BC
:104018001A60564B1A68554B802149000A431A60AA
:10402800FFF7AEFA03003B6108E0FFF7A9FA0200C8
:104038003B69D31A022B01D90323FEE14B4B1A68C3
:104048008023DB001340F0D0484B5B684A4A13409A
:1040580019007B685B691A02444B0A435A601BE0EB
:10406800424B1A68414B49490A401A60FFF788FADF
:1040780003003B6108E0FFF783FA02003B69D31AAB
:10408800022B01D90323D8E1384B1A688023DB00BF
:104098001340F0D100E0C0467B681B68082213403B
:1040A80047D0324B9B6838221340182B0AD12F4B2C
:1040B8001B6E022213403CD07B689B69002B38D1D1
:1040C8000123BAE17B689B69002B19D0274B1A6E34
:1040D800264B01210A431A66FFF752FA03003B6197
:1040E80008E0FFF74DFA02003B69D31A022B01D909
:1040F8000323A2E11D4B1B6E02221340F1D018E0EE
:104108001A4B1A6E194B01218A431A66FFF738FABF
:1041180003003B6108E0FFF733FA02003B69D31A5A
:10412800022B01D9032388E1104B1B6E0222134096
:10413800F1D17B681B680422134000D1C6E01F231D
:10414800FB1800221A70094B9B6838221340202B59
:104158001ED1064BDB6D0222134000D1B6E07B680E
:104168009B68002B00D0B1E0012366E100100240FB
:10417800FFFFFEFFFFFFFBFFFF80FFFFFFC7FFFF03
:104188000024F4000000002004000020FFFEFFFFD0
:10419800AC4BDA6B80235B05134001D1012300E0AF
:1041A8000023002B11D0A74BDA6BA64B80214905C1
:1041B8000A43DA63A34BDA6B80235B051340FB6089
:1041C800FB681F23FB1801221A709F4B1A68802373
:1041D8005B0013401AD19C4B1A689B4B8021490005
:1041E8000A431A60FFF7CCF903003B6108E0FFF7C8
:1041F800C7F902003B69D31A022B01D903231CE13A
:10420800914B1A6880235B001340F0D07B689B6851
:10421800012B06D18B4BDA6D8A4B01210A43DA65F3
:104228001CE07B689B68052B0CD1864BDA6D854BAF
:1042380004210A43DA65834BDA6D824B01210A4374
:10424800DA650BE07F4BDA6D7E4B01218A43DA6534
:104258007C4BDA6D7B4B04218A43DA657B689B686B
:10426800002B14D0FFF78CF903003B6109E0FFF73E
:1042780087F902003B69D31A744A934201D9032390
:10428800DBE0704BDB6D02221340F0D013E0FFF748
:1042980077F903003B6109E0FFF772F902003B6917
:1042A800D31A6A4A934201D90323C6E0654BDB6DF2
:1042B80002221340F0D11F23FB181B78012B05D1D4
:1042C800604BDA6B5F4B62490A40DA637B68DB69F3
:1042D800002B00D1B0E05B4B9B6838221340102BB9
:1042E80000D178E07B68DB69022B53D1554B1A6803
:1042F800544B58490A401A60FFF742F903003B61E2
:1043080008E0FFF73DF902003B69D31A022B01D9F7
:10431800032392E04B4B1A6880239B041340F0D18F
:10432800484BDB684C4A134019007B681A6A7B6863
:104338005B6A1A437B689B6A1B021A437B68DB6AC9
:104348001A437B681B6B1A433E4B0A43DA603D4BAA
:104358001A683C4B802149040A431A60394BDA68D1
:10436800384B802149050A43DA60FFF709F9030051
:104378003B6108E0FFF704F902003B69D31A022BFE
:1043880001D9032359E02F4B1A6880239B0413405B
:10439800F0D051E02B4B1A682A4B2E490A401A607C
:1043A800FFF7EEF803003B6108E0FFF7E9F80200C9
:1043B8003B69D31A022B01D903233EE0214B1A682B
:1043C80080239B041340F0D11E4BDA681D4B234910
:1043D8000A40DA6030E07B68DB69012B01D10123F8
:1043E8002BE0184BDB687B617B6903221A407B68F2
:1043F8001B6A9A421ED17B6970221A407B685B6AED
:104408009A4217D17A69FE23DB011A407B689B6ABE
:104418001B029A420ED17A69F8239B031A407B68E3
:10442800DB6A9A4206D17B695B0F5A077B681B6B74
:104438009A4201D0012300E000231800BD4608B0CD
:1044480080BDC04600100240007000408813000084
:10445800FFFFFFEFFFFFFFFE8C80C11FFCFFFEEF99
:1044680080B584B000AF786039607B68002B01D1DB
:104478000123E9E0764B1B68072213403A689A4209
:104488001ED9734B1B68072293431900704B3A6877
:104498000A431A60FFF774F80300FB6009E0FFF7AE
:1044A8006FF80200FB68D31A6A4A934201D90323C2
:1044B800CAE0674B1B68072213403A689A42EED15C
:1044C8007B681B680222134015D07B681B68042296
:1044D800134006D0604B9A685F4BE021C9010A433C
:1044E8009A605D4B9B685D4A134019007B689A6827
:1044F800594B0A439A607B681B680122134057D0C6
:104508007B685B68012B07D1534B1A6880239B0299
:1045180013402BD1012397E07B685B68022B07D1FE
:104528004D4B1A6880239B0413401FD101238BE055
:104538007B685B68002B07D1474B1A688023DB0038
:10454800134013D101237FE07B685B68032B06D1FE
:10455800414B1B6E0222134008D1012374E03E4BED
:10456800DB6D0222134001D101236DE03A4B9B68B9
:104578000722934319007B685A68374B0A439A60AD
:10458800FEF7FEFF0300FB6009E0FEF7F9FF0200FB
:10459800FB68D31A2F4A934201D9032354E02E4BC8
:1045A8009B6838221A407B685B68DB009A42ECD132
:1045B800274B1B68072213403A689A421ED2244BA5
:1045C8001B68072293431900214B3A680A431A6073
:1045D800FEF7D6FF0300FB6009E0FEF7D1FF0200FB
:1045E800FB68D31A1B4A934201D903232CE0184BCA
:1045F8001B68072213403A689A42EED17B681B6811
:104608000422134009D0144B9B68154A1340190023
:104618007B68DA68104B0A439A6000F029F80100B9
:104628000D4B9B681B0A0F221A400E4B9200D35861
:104638001F2213400A00DA400B4B1A600B4B1B6811
:104648001800FEF741FF03001800BD4604B080BD06
:10465800002002408813000000100240FFF0FFFF16
:10466800FF8FFFFF505C00080000002004000020BE
:1046780080B586B000AF3C4B9B68382213400FD101
:10468800394B1B68DB0A0722134001229A401300AA
:104698003B6039683548FBF72FFD03003B615DE05F
:1046A800314B9B6838221340082B02D1304B3B61B9
:1046B80054E02D4B9B6838221340102B38D12A4BDD
:1046C800DB6803221340FB60274BDB681B090722CA
:1046D80013400133BB60FB68032B0DD1B968244834
:1046E800FBF70AFD030019001F4BDB681B0A7F223A
:1046F80013404B437B610DE0B9681C48FBF7FCFC99
:1047080003001900184BDB681B0A7F2213404B4338
:104718007B61C046144BDB685B0F072213400133F3
:104728007B6079687869FBF7E7FC03003B6115E07B
:104738000D4B9B6838221340202B03D180231B028A
:104748003B610BE0084B9B6838221340182B03D1C0
:10475800FA23DB013B6101E000233B613B69180060
:10476800BD4606B080BDC046001002400024F400DB
:1047780000127A0080B586B000AF78601323FB186A
:1047880000221A701223FB1800221A707B681A681C
:1047980080239B02134000D1A3E011203B18002284
:1047A8001A707F4BDA6B80235B05134010D17C4B6A
:1047B800DA6B7B4B802149050A43DA63784BDA6B65
:1047C80080235B051340BB60BB683B1801221A704D
:1047D800744B1A68734B802149000A431A60FEF72C
:1047E800CFFE0300FB600BE0FEF7CAFE0200FB6889
:1047F800D31A022B04D91323FB1803221A7005E0DD
:10480800684B1A6880235B001340EDD01323FB1814
:104818001B78002B54D1624BDA6DC0239B001340E8
:104828007B617B69002B19D07B685B697A699A4246
:1048380014D05B4BDB6D5C4A13407B61584BDA6DDF
:10484800574B802149020A43DA65554BDA6D544BC0
:1048580056490A40DA65524B7A69DA657B69012262
:10486800134016D0FEF78CFE0300FB600CE0FEF749
:1048780087FE0200FB68D31A4D4A934204D91323DA
:10488800FB1803221A7004E0454BDB6D022213402B
:10489800EDD01323FB181B78002B0AD1404BDB6D9E
:1048A800414A134019007B685A693D4B0A43DA654F
:1048B8000CE01223FB181322BA1812781A7005E0BC
:1048C8001223FB181322BA1812781A701123FB1836
:1048D8001B78012B05D1324BDA6B314B35490A4035
:1048E800DA637B681B680122134009D02C4B5B6D8F
:1048F8000322934319007B685A68294B0A435A6577
:104908007B681B682022134009D0254B5B6D2A4A1F
:10491800134019007B689A68214B0A435A657B68E3
:104928001A688023DB01134015D01D4B5B6D9B007B
:1049380099087B681A691A4B0A435A657B681A6991
:104948008023DB059A4206D1154BDA68144B802187
:1049580049020A43DA607B681A6880231B01134006
:1049680016D00F4B5B6D154A134019007B68DA6847
:104978000B4B0A435A657B68DA688023DB019A424D
:1049880006D1074BDA68064B802149020A43DA60F0
:104998001223FB181B781800BD4606B080BDC04620
:1049A8000010024000700040FFFCFFFFFFFFFEFF09
:1049B80088130000FFFFFFEFFFCFFFFFFF3FFFFF60
:1049C80080B584B000AF78607B68002B01D10123EB
:1049D800A8E07B685B6A002B09D17B685A68822350
:1049E8005B009A4209D07B680022DA6105E07B68A7
:1049F80000221A617B6800225A617B6800229A6251
:104A08007B685D229B5CDBB2002B07D17B685C2254
:104A1800002199547B681800FEF7FCFA7B685D2238
:104A2800022199547B681B681A687B681B684021BF
:104A38008A431A607B68DA68E023DB009A4202D96D
:104A48000023FB6002E080235B01FB607B68DA687F
:104A5800F0231B019A4208D07B68DA68E023DB0068
:104A68009A4202D07B6800229A627B685A68822345
:104A78005B001A407B68996884231B020B401A4329
:104A88007B681B6902210B401A437B685B69012123
:104A98000B401A437B68996980239B000B401A439B
:104AA8007B68DB6938210B401A437B681B6A8021CD
:104AB8000B401A4311007B689A6A80239B011A40B5
:104AC8007B681B680A431A607B689B691B0C04227D
:104AD8001A407B685B6A10210B401A437B685B6B4A
:104AE80008210B401A437B68D968F0231B010B404F
:104AF8001A431100FA6880235B011A407B681B681F
:104B08000A435A607B681B68DA697B681B68074937
:104B18000A40DA617B6800221A667B685D220121FF
:104B2800995400231800BD4604B080BDFFF7FFFF6D
:104B380080B588B000AFF860B9603B60BB1D1A80D3
:104B48001F23FB1800221A70FB685C229B5C012B58
:104B580001D1022347E1FB685C2201219954FEF749
:104B68000FFD0300BB611623FB18BA1D12881A80BB
:104B7800FB685D229B5CDBB2012B04D01F23FB1872
:104B880002221A7028E1BB68002B03D0BB1D1B88CA
:104B9800002B04D11F23FB1801221A701CE1FB68AB
:104BA8005D2203219954FB6800221A66FB68BA68E3
:104BB8009A63FB68BA1D12889A87FB68BA1D128827
:104BC800DA87FB6800221A64FB68442200219952A4
:104BD800FB68462200219952FB6800221A65FB688F
:104BE8000022DA64FB689A6880231B029A4210D17B
:104BF800FB681B681A68FB681B6840218A431A60B7
:104C0800FB681B681A68FB681B688021C9010A4396
:104C18001A60FB681B681B6840221340402B07D0B2
:104C2800FB681B681A68FB681B6840210A431A6006
:104C3800FB68DA68E023DB009A4252D9FB685B68BC
:104C4800002B04D01623FB181B88012B43D1FB68CB
:104C58009B6B1A88FB681B68DA60FB689B6B9A1C65
:104C6800FB689A63FB68DB8F9BB2013B9AB2FB68D7
:104C7800DA8730E0FB681B689B6802221340022B2E
:104C880012D1FB689B6B1A88FB681B68DA60FB68AB
:104C98009B6B9A1CFB689A63FB68DB8F9BB2013B9A
:104CA8009AB2FB68DA8716E0FEF76AFC0200BB6975
:104CB800D31A3A689A4202D83B68013302D13B685A
:104CC800002B08D11F23FB1803221A70FB685D22F2
:104CD8000121995480E0FB68DB8F9BB2002BC9D17E
:104CE80053E0FB685B68002B04D01623FB181B8875
:104CF800012B45D1FB689A6BFB681B680C33127853
:104D08001A70FB689B6B5A1CFB689A63FB68DB8F05
:104D18009BB2013B9AB2FB68DA8731E0FB681B68FB
:104D28009B6802221340022B13D1FB689A6BFB6825
:104D38001B680C3312781A70FB689B6B5A1CFB6853
:104D48009A63FB68DB8F9BB2013B9AB2FB68DA87F8
:104D580016E0FEF715FC0200BB69D31A3A689A42BE
:104D680002D83B68013302D13B68002B08D11F23CE
:104D7800FB1803221A70FB685D22012199542BE06D
:104D8800FB68DB8F9BB2002BC8D1BA693968FB6816
:104D9800180000F0EFFC031E02D0FB6820221A6600
:104DA800FB689B68002B0AD100233B61FB681B68EA
:104DB800DB683B61FB681B689B683B613B69FB6880
:104DC8001B6E002B04D01F23FB1801221A7003E06E
:104DD800FB685D2201219954FB685C2200219954EB
:104DE8001F23FB181B781800BD4608B080BD0000C3
:104DF80090B589B002AFF860B9603B60BB1D1A80FE
:104E080017217B1800221A70FB685D229B5CDBB2BD
:104E1800012B03D07B1802221A702BE1FB685A6819
:104E280082235B009A4213D1FB689B68002B0FD149
:104E3800FB685D2204219954BB1D1C88BA68B968B7
:104E4800F8683B680093230000F024F9030018E198
:104E5800FB685C229B5C012B01D1022311E1FB68FA
:104E68005C2201219954FEF78BFB03003B61BB6870
:104E7800002B03D0BB1D1B88002B04D11723FB1864
:104E880001221A70F6E0FB685D2204219954FB6840
:104E980000221A66FB68BA681A64FB68BA1D4421C6
:104EA80012885A52FB68BA1D462112885A52FB686A
:104EB80000229A63FB6800229A87FB680022DA873F
:104EC800FB680022DA64FB6800221A65FB68DA686E
:104ED800E023DB009A4208D9FB681B685A68FB6824
:104EE8001B686A490A405A6008E0FB681B685A68F0
:104EF800FB681B68802149010A435A60FB689A686D
:104F080080231B029A420FD1FB681B681A68FB6852
:104F18001B6840218A431A60FB681B681A68FB6893
:104F28001B685B490A401A60FB681B681B684022C3
:104F38001340402B07D0FB681B681A68FB681B6886
:104F480040210A431A60FB68DA68E023DB009A42D2
:104F580000D971E035E0FB681B689B6801221340AB
:104F6800012B17D1FB681B680C331A00FB681B6CFC
:104F78001278D2B21A70FB681B6C5A1CFB681A6450
:104F8800FB6846229B5A9BB2013B99B2FB684622BA
:104F9800995216E0FEF7F4FA02003B69D31A3A6810
:104FA8009A4202D83B68013302D13B68002B08D1F2
:104FB8001723FB1803221A70FB685D2201219954FC
:104FC80058E0FB6846229B5A9BB2002BC3D139E0BC
:104FD800FB681B689B6801221340012B15D1FB68F5
:104FE8001B68DA68FB681B6C92B21A80FB681B6C42
:104FF8009A1CFB681A64FB6846229B5A9BB2013BC9
:1050080099B2FB684622995216E0FEF7B9FA0200F7
:105018003B69D31A3A689A4202D83B68013302D1F5
:105028003B68002B08D11723FB1803221A70FB6872
:105038005D22012199541DE0FB6846229B5A9BB2D0
:10504800002BC5D13A693968FB68180000F034FBB9
:10505800031E02D0FB6820221A66FB681B6E002B19
:1050680004D01723FB1801221A7003E0FB685D22A5
:1050780001219954FB685C22002199541723FB18DD
:105088001B781800BD4607B090BDC046FFEFFFFF74
:10509800FFBFFFFF80B58AB000AFF860B9607A60E3
:1050A8001A00BB1C1A8001237B622323FB180022F1
:1050B8001A70FB685C229B5C012B01D10223C4E1BE
:1050C800FB685C2201219954FEF75AFA0300FB6140
:1050D8001B203B18FA685D21525C1A70FB685B68FC
:1050E8007B611223FB18BA1C12881A803B181B78A4
:1050F800012B11D07A6982235B009A4207D1FB68A1
:105108009B68002B03D13B181B78042B04D0232366
:10511800FB1802221A7091E1BB68002B06D07B684D
:10512800002B03D0BB1C1B88002B04D12323FB18A6
:1051380001221A7082E1FB685D229B5CDBB2042BC2
:1051480003D0FB685D2205219954FB6800221A668A
:10515800FB687A681A64FB68BA1C462112885A529E
:10516800FB68BA1C442112885A52FB68BA689A63D1
:10517800FB68BA1C1288DA87FB68BA1C12889A87FF
:10518800FB680022DA64FB6800221A65FB68DA68AB
:10519800E023DB009A4208D9FB681B685A68FB6861
:1051A8001B68AC490A405A6008E0FB681B685A68EB
:1051B800FB681B68802149010A435A60FB681B6829
:1051C8001B6840221340402B07D0FB681B681A68F5
:1051D800FB681B6840210A431A60FB68DA68E02311
:1051E800DB009A4200D883E0FB685B68002B05D09F
:1051F8001223FB181B88012B00D06DE0FB689B6B0A
:105208001A88FB681B68DA60FB689B6B9A1CFB6852
:105218009A63FB68DB8F9BB2013B9AB2FB68DA8723
:105228005AE0FB681B689B6802221340022B1BD1C3
:10523800FB68DB8F9BB2002B16D07B6A012B13D146
:10524800FB689B6B1A88FB681B68DA60FB689B6BC2
:105258009A1CFB689A63FB68DB8F9BB2013B9AB28E
:10526800FB68DA8700237B62FB681B689B68012266
:105278001340012B1CD1FB6846229B5A9BB2002B82
:1052880016D0FB681B68DA68FB681B6C92B21A8040
:10529800FB681B6C9A1CFB681A64FB6846229B5AC5
:1052A8009BB2013B99B2FB684622995201237B626B
:1052B800FEF766F90200FB69D31A3A6B9A420BD8DB
:1052C8003B6B013308D02323FB1803221A70FB68B9
:1052D8005D2201219954B1E0FB68DB8F9BB2002B62
:1052E8009FD1FB6846229B5A9BB2002B99D189E03B
:1052F800FB685B68002B05D01223FB181B88012B69
:1053080000D074E0FB689A6BFB681B680C3312785A
:105318001A70FB689B6B5A1CFB689A63FB68DB8FEF
:105328009BB2013B9AB2FB68DA8760E0FB681B68B6
:105338009B6802221340022B1CD1FB68DB8F9BB2B7
:10534800002B17D07B6A012B14D1FB689A6BFB6882
:105358001B680C3312781A70FB689B6B5A1CFB682D
:105368009A63FB68DB8F9BB2013B9AB2FB68DA87D2
:1053780000237B62FB681B689B6801221340012B9A
:105388001ED1FB6846229B5A9BB2002B18D0FB68A3
:105398001B680C331A00FB681B6C1278D2B21A70A7
:1053A800FB681B6C5A1CFB681A64FB6846229B5AF4
:1053B8009BB2013B99B2FB684622995201237B625A
:1053C800FEF7DEF80200FB69D31A3A6B9A4202D85C
:1053D8003B6B013302D13B6B002B08D12323FB1815
:1053E80003221A70FB685D220121995426E0FB68AC
:1053F800DB8F9BB2002B99D1FB6846229B5A9BB24C
:10540800002B93D1FA69396BFB68180000F0B2F9E8
:10541800031E06D02323FB1801221A70FB682022E2
:105428001A66FB681B6E002B04D02323FB1801228D
:105438001A7003E0FB685D2201219954FB685C2225
:10544800002199542323FB181B781800BD460AB085
:1054580080BDC046FFEFFFFF80B588B000AFF860A1
:10546800B9603B60FB1D1A70FEF78AF80200BB6A40
:105478009B1A3A68D318FB61FEF782F80300BB61F8
:105488003A4B1B685B011B0DFA6953437B6158E07B
:105498003B68013355D0FEF773F80200BB69D31A95
:1054A800FA699A4202D9FB69002B42D1FB681B6852
:1054B8005A68FB681B68E0218A435A60FB685A688F
:1054C80082235B009A4213D1FB689A6880231B02EF
:1054D8009A4205D0FB689A688023DB009A4207D17C
:1054E800FB681B681A68FB681B6840218A431A60BE
:1054F800FB689A6A80239B019A4210D1FB681B685B
:105508001A68FB681B681A490A401A60FB681B681E
:105518001A68FB681B68802189010A431A60FB68C6
:105528005D2201219954FB685C22002199540323D0
:1055380017E07B69002B01D10023FB617B69013BEC
:105548007B61FB681B689B68BA681340BA68D31A0A
:105558005A425341DBB21A00FB1D1B789A4297D17D
:1055680000231800BD4608B080BDC04600000020DA
:10557800FFDFFFFF80B58AB000AFF860B9607A60DE
:105588003B601723FB1800221A70FDF7F9FF020091
:105598003B6B9B1A3A68D3187B62FDF7F1FF030057
:1055A8003B62FB681B680C33FB61414B1A681300B4
:1055B8009B009B18DA00D31A1B0D7A6A5343BB6110
:1055C80068E0BA68C023DB009A420AD17B68002BE6
:1055D80007D1FB691B78DAB217217B181A707B1880
:1055E8001B783B68013355D0FDF7CAFF02003B6AC0
:1055F800D31A7A6A9A4202D97B6A002B42D1FB6895
:105608001B685A68FB681B68E0218A435A60FB687C
:105618005A6882235B009A4213D1FB689A688023F8
:105628001B029A4205D0FB689A688023DB009A42E5
:1056380007D1FB681B681A68FB681B6840218A430E
:105648001A60FB689A6A80239B019A4210D1FB6812
:105658001B681A68FB681B6816490A401A60FB68D1
:105668001B681A68FB681B68802189010A431A6055
:10567800FB685D2201219954FB685C220021995442
:10568800032310E0BB69002B01D100237B62BB69B7
:10569800013BBB61FB681B689B68BA6813407A686A
:1056A8009A428ED100231800BD460AB080BDC0467C
:1056B80000000020FFDFFFFF80B586B002AFF86072
:1056C800B9607A60FB685A6882235B009A4213D1FA
:1056D800FB689A6880231B029A4205D0FB689A6887
:1056E8008023DB009A4207D1FB681B681A68FB68B5
:1056F8001B6840218A431A60BA68F8687B6800937F
:10570800130000228021FFF7A7FE031E07D0FB68C5
:105718001B6E20221A43FB681A66032326E0FB68E7
:105728005A6882235B009A421FD1FB689A688023DB
:105738001B029A4205D0FB689A688023DB009A42D4
:1057480013D1BA68C023D900F8687B6800931300A6
:105758000022FFF70FFF031E07D0FB681B6E2022F5
:105768001A43FB681A66032300E000231800BD46AD
:1057780004B080BD80B586B002AFF860B9607A60C9
:10578800BA68C0235901F8687B68009313000022A7
:10579800FFF7F0FE031E07D0FB681B6E20221A439A
:1057A800FB681A66032327E0BA68F8687B680093E9
:1057B800130000228021FFF74FFE031E07D0FB686D
:1057C8001B6E20221A43FB681A66032314E0BA688A
:1057D800C023D900F8687B68009313000022FFF704
:1057E800C9FE031E07D0FB681B6E20221A43FB6804
:1057F8001A66032300E000231800BD4604B080BDEC
:1058080010B5034B0100186800F030F810BDC04611
:105818000C00002010B5034B0100186800F006F9D1
:1058280010BDC0460C00002070B50F4E0D00316849
:105838000400002902D100F0B1F8306029002000EE
:1058480000F0ACF8431C03D101256D42280070BD5F
:105858000323C51C9D43A842F8D0291A200000F054
:105868009DF80130F2D1EFE760010020F7B503227F
:10587800CB1C9343083305001F000C2B34D20C2794
:10588800B94233D8280000F071F8374E33681C004D
:10589800002C2FD139002800FFF7C6FF0400431C55
:1058A8005FD134680094009B002B4AD1002C52D061
:1058B80023682800E3180099019300F06FF8019B12
:1058C800834248D123682800FF1A3900FFF7ACFF4C
:1058D800013040D02368DB19236033685A68002AF6
:1058E80033D1009B336019E0002BC9DA0C232B60FD
:1058F8000020FEBD2168C91B20D40B290AD9E21952
:105908002760A34204D1326063681160536005E0E8
:105918005A60F9E76268A3420ED13260280000F0AD
:105928002DF8200007220B30231D9043C21A9842FD
:10593800DFD01B1AA350DCE75A60EFE72300646846
:10594800A6E7009C63680093ADE71A005B68A34272
:10595800FBD10023DAE70C2328002B6000F00EF8B7
:10596800C6E70760DAE7C0466401002010B50248C0
:1059780000F050F810BDC046A402002010B502483F
:1059880000F049F810BDC046A402002003008218A8
:10599800934200D1704719700133F9E7002370B5BD
:1059A800064D040008002B60FDF7BCFB431C03D127
:1059B8002B68002B00D0236070BDC046A0020020D9
:1059C800014B18687047C0460C00002070B50026CF
:1059D8000C4C0D4D641BA410A64209D1002600F002
:1059E8006FF80A4C0A4D641BA410A64205D170BD7D
:1059F800B300EB5898470136EEE7B300EB589847E9
:105A08000136F2E7985C0008985C00089C5C000886
:105A1800985C000870477047002310B59A4200D17F
:105A280010BDCC5CC4540133F8E7000070B5050024
:105A38000C1E10D0043C2368002B00DAE418280060
:105A4800FFF794FF1D4A1368002B05D163601460AB
:105A58002800FFF793FF70BDA34208D920682118DA
:105A68008B42F3D119685B6809182160EEE71A00C8
:105A78005B68002B01D0A342F9D911685018A042E5
:105A88000BD120680918501811608342E0D11868BA
:105A98005B68411811605360DAE7A04202D90C2311
:105AA8002B60D5E7206821188B4203D119685B6801
:105AB8000918216063605460CAE7C0466401002089
:105AC800F8B5C046F8BC08BC9E467047F8B5C04655
