:020000040800F2
:1000000000500020A5300008692F0008712F00085B
:10001000792F0008812F0008892F000800000000B8
:10002000000000000000000000000000912F000808
:100030009D2F000800000000A92F0008B52F000820
:10004000ED300008ED300008ED300008ED3000081C
:10005000ED300008ED300008ED300008ED3000080C
:10006000ED300008ED300008ED300008ED300008FC
:10007000ED300008ED300008ED300008ED300008EC
:10008000ED300008ED300008ED300008ED300008DC
:10009000ED300008ED300008ED300008ED300008CC
:1000A000ED300008ED300008ED300008ED300008BC
:1000B000ED300008ED300008ED300008ED300008AC
:1000C000ED300008ED300008ED300008ED3000089C
:1000D000ED300008C12F0008ED300008ED300008B9
:1000E000ED300008ED300008ED30000800000000A1
:1000F0000000000000000000000000000000000000
:0C01000000000000000000005FF808F1A3
:10010C0010B5054C237833B9044B13B10448AFF345
:10011C0000800123237010BD5C0000200000000053
:10012C00EC75000808B5034B1BB103490348AFF34A
:10013C00008008BD0000000060000020EC75000885
:10014C0080F0004002E000BF81F0004142001FBF80
:10015C005FEA410392EA030F7FEA226C7FEA236C89
:10016C006AD04FEA1262D2EB1363C1BFD21841407E
:10017C0048404140B8BF5B42192B88BF704710F014
:10018C00004F40F4000020F07F4018BF404211F0B7
:10019C00004F41F4000121F07F4118BF494292EA1F
:1001AC00030F3FD0A2F1010241FA03FC10EB0C004B
:1001BC00C3F1200301FA03F100F0004302D54942D8
:1001CC0060EB4000B0F5000F13D3B0F1807F06D385
:1001DC0040084FEA310102F10102FE2A51D2B1F17D
:1001EC00004F40EBC25008BF20F0010040EA030072
:1001FC007047490040EB0000013A28BFB0F5000FF2
:10020C00EDD2B0FA80FCACF1080CB2EB0C0200FAA7
:10021C000CF0AABF00EBC25052421843BCBFD040F6
:10022C001843704792F0000F81F4000106BF80F470
:10023C0000000132013BB5E74FEA41037FEA226C33
:10024C0018BF7FEA236C21D092EA030F04D092F0FE
:10025C00000F08BF0846704790EA010F1CBF002032
:10026C00704712F07F4F04D1400028BF40F000408F
:10027C00704712F100723CBF00F50000704700F0AF
:10028C00004343F0FE4040F4000070477FEA2262D6
:10029C0016BF08467FEA23630146420206BF5FEAA7
:1002AC00412390EA010F40F4800070474FF00003A7
:1002BC0004E000BF10F0004348BF40425FEA000C6E
:1002CC0008BF704743F0964301464FF000001CE016
:1002DC0050EA010208BF70474FF000030AE000BF6C
:1002EC0050EA010208BF704711F0004302D54042AA
:1002FC0061EB41015FEA010C02BF8446014600201C
:10030C0043F0B64308BFA3F18053A3F50003BCFA36
:10031C008CF2083AA3EBC25310DB01FA02FC6344E3
:10032C0000FA02FCC2F12002BCF1004F20FA02F2EA
:10033C0043EB020008BF20F00100704702F12002DD
:10034C0001FA02FCC2F1200250EA4C0021FA02F23E
:10035C0043EB020008BF20EADC7070474FF0FF0C43
:10036C001CEAD0521EBF1CEAD15392EA0C0F93EA3E
:10037C000C0F6FD01A4480EA010C400218BF5FEAE0
:10038C0041211ED04FF0006343EA501043EA511153
:10039C00A0FB01310CF00040B1F5000F3EBF49004D
:1003AC0041EAD3715B0040EA010062F17F02FD2A51
:1003BC001DD8B3F1004F40EBC25008BF20F0010034
:1003CC00704790F0000F0CF0004C08BF49024CEA4B
:1003DC00502040EA51207F3AC2BFD2F1FF0340EADD
:1003EC00C250704740F400004FF00003013A5DDC4E
:1003FC0012F1190FDCBF00F000407047C2F100028F
:10040C00410021FA02F1C2F1200200FA02FC5FEA7B
:10041C00310040F1000053EA4C0308BF20EADC70C5
:10042C00704792F0000F00F0004C02BF400010F437
:10043C00000F013AF9D040EA0C0093F0000F01F0E4
:10044C00004C02BF490011F4000F013BF9D041EA06
:10045C000C018FE70CEAD15392EA0C0F18BF93EA08
:10046C000C0F0AD030F0004C18BF31F0004CD8D132
:10047C0080EA010000F00040704790F0000F17BFB9
:10048C0090F0004F084691F0000F91F0004F14D0FF
:10049C0092EA0C0F01D142020FD193EA0C0F03D157
:1004AC004B0218BF084608D180EA010000F000405A
:1004BC0040F0FE4040F40000704740F0FE4040F435
:1004CC00400070474FF0FF0C1CEAD0521EBF1CEAD4
:1004DC00D15392EA0C0F93EA0C0F69D0A2EB0302F2
:1004EC0080EA010C49024FEA402037D04FF080538C
:1004FC0043EA111143EA10130CF000408B4238BF51
:10050C005B0042F17D024FF4000C8B4224BF5B1A5E
:10051C0040EA0C00B3EB510F24BFA3EB510340EAAC
:10052C005C00B3EB910F24BFA3EB910340EA9C005A
:10053C00B3EBD10F24BFA3EBD10340EADC001B01CA
:10054C0018BF5FEA1C1CE0D1FD2A3FF650AF8B426E
:10055C0040EBC25008BF20F0010070470CF0004C7B
:10056C004CEA50207F32C2BFD2F1FF0340EAC250A6
:10057C00704740F400004FF00003013A37E792F067
:10058C00000F00F0004C02BF400010F4000F013AC5
:10059C00F9D040EA0C0093F0000F01F0004C02BFC0
:1005AC00490011F4000F013BF9D041EA0C0195E729
:1005BC000CEAD15392EA0C0F08D142027FF47DAFC2
:1005CC0093EA0C0F7FF470AF084676E793EA0C0FB2
:1005DC0004D14B023FF44CAF08466EE730F0004CB0
:1005EC0018BF31F0004CCAD130F000427FF45CAF40
:1005FC0031F000437FF43CAF5FE700BF4FEA4002AD
:10060C00B2F1FE4F0FD34FF09E03B3EB12620DD934
:10061C004FEA002343F0004310F0004F23FA02F09E
:10062C0018BF404270474FF00000704712F1610F45
:10063C0001D1420205D110F0004008BF6FF000401C
:10064C0070474FF00000704742000ED2B2F1FE4FDF
:10065C000BD34FF09E03B3EB126209D44FEA002385
:10066C0043F0004323FA02F070474FF0000070474C
:10067C0012F1610F01D1420202D14FF0FF307047ED
:10068C004FF00000704700BF53B94AB9002908BFAA
:10069C0000281CBF4FF0FF314FF0FF3000F068B95D
:1006AC00ADF1080C6DE904CE00F006F8DDF804E0BD
:1006BC00DDE9022304B070472DE9F047089D0C4694
:1006CC00002B4ED194468C458646B2FA82F262D902
:1006DC004AB1C2F12003914020FA03F30CFA02FC58
:1006EC00194300FA02FE4FEA1C47B1FBF7F407FB73
:1006FC0014111FFA8CF64FEA1E4343EA014304FB24
:10070C0006F199420AD91CEB030304F1FF3080F087
:10071C001081994240F20D81023C6344591AB1FB9D
:10072C00F7F007FB101100FB06F61FFA8EF343EAF5
:10073C0001439E420AD91CEB030300F1FF3180F008
:10074C00FA809E4240F2F7806344023800219B1BE2
:10075C0040EA04401DB1D3400022C5E90032BDE897
:10076C00F0878B4205D90DB1C5E90001002108467F
:10077C00F5E7B3FA83F1002946D1A34202D39042A4
:10078C00C0F0EE80861A64EB03030120002DE6D046
:10079C00C5E90063E3E7002A40F08F80A1EB0C046D
:1007AC0001214FEA1C481FFA8CF7B4FBF8F608FB42
:1007BC00164407FB06F04FEA1E4343EA04439842F3
:1007CC0008D91CEB030306F1FF3402D2984200F265
:1007DC00CB8026461C1AB4FBF8F008FB104400FB37
:1007EC0007F71FFA8EF343EA04439F4208D91CEB28
:1007FC00030300F1FF3402D29F4200F2AE80204688
:10080C00DB1B40EA0640A5E7C1F120078B4022FA2A
:10081C0007FC4CEA030C24FA07F64FEA1C49B6FB1A
:10082C00F9F81FFA8CFE09FB186620FA07F38C40C6
:10083C0000FA01FA08FB0EF01C43230C43EA0643B2
:10084C00984202FA01F20AD91CEB030308F1FF36B5
:10085C0080F0818098427ED9A8F1020863441E1A68
:10086C00B6FBF9F309FB136603FB0EFEA4B244EAD4
:10087C000644A64508D91CEB040403F1FF3066D2EC
:10088C00A64564D9023B644443EA0840A0FB0283BA
:10089C00A4EB0E049C42C6461E4650D34DD055B117
:1008AC00BAEB0E0364EB060404FA07F7CB401F43C4
:1008BC00CC40C5E90074002151E70CFA02FCC2F1EE
:1008CC002003D9404FEA1C4820FA03F300FA02FE39
:1008DC00B1FBF8F008FB101194401C431FFA8CF785
:1008EC00230C43EA014300FB07F1994208D91CEBA6
:1008FC00030300F1FF362CD299422AD90238634403
:10090C005B1AB3FBF8F108FB1133A4B244EA0344BD
:10091C0001FB07F3A34208D91CEB040401F1FF36D9
:10092C0013D2A34211D902396444E41A41EA0041BA
:10093C003BE70446F2E6084608E7C245AFD2B8EBFF
:10094C00020E63EB0C060138A9E73146EDE70346CE
:10095C009AE73046D4E7B04681E7634402384FE764
:10096C0006462346084611E7023E634432E700BFC1
:10097C00704700BF80B584B000AF78600B46FB7049
:10098C000023FB73002201210F4802F08CFF012091
:10099C0002F00AFCF91C64230122786805F04AFA7B
:1009AC0007F10F0164230122786805F086FB012012
:1009BC0002F0FAFB01220121034802F074FFFB7BD9
:1009CC0018461037BD4680BD000C014080B588B07C
:1009DC0000AFF8607A601A460B46FB721346BB7286
:1009EC00BB7A042B37D800233B6100233B75FB7A81
:1009FC0063F07F03DBB23B740023FB610123BB611B
:100A0C000FE0FB695A1CFA611A467B68134419788B
:100A1C0007F11002BB6913440A461A70BB69013313
:100A2C00BB61BB7ABA699A42EBDD002201210C480A
:100A3C0002F039FFBB7A9BB201339AB207F1100175
:100A4C004FF47A73F86805F0F5F901220121044896
:100A5C0002F029FF00E000BF2037BD4680BD00BF7B
:100A6C00000C0140B0B586B000AF786079680968B9
:100A7C0000200A460346550BD404194A4FF00003D4
:100A8C0020462946FFF700FE02460B46C7E9042321
:100A9C00D7E904014FF000024FF00003020C42EAC8
:100AAC0001420B0CD3B23B73D7E904014FF00002A7
:100ABC004FF00003020A42EA01620B0AD3B27B73C5
:100ACC003B7CBB737B68D3F8640107F10C020323F6
:100ADC000621FFF77BFF00BF1837BD46B0BD00BF36
:100AEC000048E80180B582B000AF78607B68D3F82D
:100AFC0064017B6803F10C0201230921FFF766FFF7
:100B0C0000BF0837BD4680BD80B582B000AF7860AD
:100B1C007B68D3F864017B6803F1120201230B217B
:100B2C00FFF754FF00BF0837BD4680BD80B582B0CB
:100B3C0000AF78607B68D3F864017B6803F1150221
:100B4C0001231F21FFF742FF7B68D3F864017B6808
:100B5C0003F1170201232021FFF738FF7B68D3F83C
:100B6C0064017B6803F1180201232121FFF72EFF9A
:100B7C0000BF0837BD4680BD80B584B000AF78603B
:100B8C000023FB737B689B7B1B01DBB2FB737B68D5
:100B9C00DB7B5B00DAB2FB7B1344DBB2FB737B6861
:100BAC001A7FFB7B1344DBB2FB737B68D3F86401C5
:100BBC0007F10F0201231D21FFF708FF7B685B7B08
:100BCC001B01DBB2FB737B681B7C9B00DAB2FB7BEB
:100BDC001344DBB2FB737B689A7DFB7B1344DBB263
:100BEC00FB737B68D3F8640107F10F0201231E210C
:100BFC00FFF7ECFE7B68D3F864017B6803F1140209
:100C0C0001232621FFF7E2FE00BF1037BD4680BD51
:100C1C0080B584B000AF78607B68D3F86431312143
:100C2C001846FFF7A7FE0346FB73FB7B23F0070375
:100C3C00DBB2FB73FB7B43F00503DBB2FB737B681E
:100C4C00D3F8640107F10F0201233121FFF7BEFE37
:100C5C000C23FB737B68D3F8640107F10F020123AB
:100C6C003721FFF7B3FE00BF1037BD4680BD80B5FE
:100C7C0084B000AF78600B46FB70FB7863F07703B1
:100C8C00DBB2FB737B68D3F8640107F10F0201231D
:100C9C000121FFF79BFE7B68FA7883F82C2000BFBC
:100CAC001037BD4680BD80B584B000AF7860FF239F
:100CBC00FB737B68D3F8640107F10F020123122147
:100CCC00FFF784FE00BF1037BD4680BD80B582B0F3
:100CDC0000AF786000217868FFF7C9FF0F2002F0A1
:100CEC0063FA7868FFF7BEFE7B68D3F864017B6813
:100CFC0003F1110201233921FFF768FE7868FFF731
:100D0C00F1FE7868FFF700FF7B68D3F864017B681D
:100D1C0003F1130201230C21FFF758FE7B685B7B68
:100D2C00062B09D17B6801221A777B6803229A75FE
:100D3C007868FFF76DFF05E07B6800221A777B6807
:100D4C0000229A757868FFF717FF7868FFF7EEFEB8
:100D5C007B68D3F864017B6803F119020123242119
:100D6C00FFF734FE7B68D3F864017B6803F11A0249
:100D7C0001234021FFF72AFE7868FFF794FF7B6878
:100D8C00D3F864017B6803F11B0201231121FFF7E7
:100D9C001DFE00BF0837BD4680BD80B584B000AFD6
:100DAC0078600B46FB7002F0F5F9F860FB78002BCD
:100DBC0002D0FB78022B1FD1FB78002B02D17B6871
:100DCC009B6801E07B685B687A6813607B684122F2
:100DDC009A767B68FF22DA767B68DB7E23F0080349
:100DEC00DAB27B68DA767B68FA7883F82D207B6838
:100DFC00012283F82E2024E0FB78012B02D0FB7813
:100E0C00032B1ED1FB78012B02D17B685B6801E0C0
:100E1C007B689B687A6813607B6801229A767B6892
:100E2C00FF22DA767B68DB7E23F06003DAB27B6824
:100E3C00DA767B68FA7883F82D207B68022283F8B7
:100E4C002E2001217868FFF712FF7868FFF70AFE61
:100E5C007B68D3F864017B6803F11A0201234021FB
:100E6C00FFF7B4FD7868FFF71EFF7B68D3F86401C9
:100E7C007B6803F11B0201231121FFF7A7FD00BFC3
:100E8C001037BD4680BD000080B500AF01220121A6
:100E9C000A4802F008FD00220121084802F003FD77
:100EAC00012002F081F901220121044802F0FBFC2F
:100EBC00642002F079F900BF80BD00BF000C014036
:100ECC0080B584B000AF786002F064F90346FB6033
:100EDC004FF48041194802F0CFFC0346002B15D08B
:100EEC007B68D3F8643112211846FFF743FD78680C
:100EFC00FFF7D9FE7B68032283F82E2002F04AF913
:100F0C000246FB68D21A7B681A6213E002F042F9BF
:100F1C000246FB68D31A44F62062934206D9FFF7C7
:100F2C00B3FF7B68052283F82E2003E0012002F03A
:100F3C003BF9CDE71037BD4680BD00BF000C01402A
:100F4C0080B584B000AF78606423FB730023BB735F
:100F5C007B68D3F8643113211846FFF70BFD034669
:100F6C001A467B6883F85B217B6893F85B31002B16
:100F7C0021D000220121124802F095FC7B68D3F8A5
:100F8C006401FB7B07F10E01012204F053FF7B6827
:100F9C00D3F864017B6803F12F01FB7B4FF4807263
:100FAC0005F08BF801220121054802F07CFC7B68DE
:100FBC00042283F82E2000BF1037BD4680BD00BF31
:100FCC00000C014080B584B000AF786000217868D7
:100FDC00FFF74DFE7B6893F85B31FB737B68D3F8AE
:100FEC00640107F10F0201232221FFF7EFFC00231C
:100FFC00BB737B68D3F8640107F10E0201230D214A
:10100C00FFF7E4FC7B68D3F8643122211846FFF724
:10101C00B1FC03461A467B6883F85B2100BF10378E
:10102C00BD4680BD80B584B000AF78607B6893F816
:10103C006031FB728023BB727B6893F86031002BAC
:10104C002AD07B68D3F8640107F10B02012322211B
:10105C00FFF7BCFC7B68D3F8640107F10A0201239B
:10106C000D21FFF7B3FC0023FB600EE07B68D3F887
:10107C0064017B68D3F85C21FB681A4401230021CE
:10108C00FFF7A4FCFB680133FB607B6893F86031CD
:10109C001A46FB689342E9DB7B6893F8603118468B
:1010AC001037BD4680BD80B582B000AF78607868DF
:1010BC00FFF7B8FF03217868FFF7D9FD7868FFF7D1
:1010CC00FFFE00BF0837BD4680BD000080B582B072
:1010DC0000AF78607B6803F10D0101230022002032
:1010EC0000F0F0F87B6803F10E01012301220020CF
:1010FC0000F0E8F87B6803F10F01012302220020C5
:10110C0000F0E0F87B68191D04230022012000F098
:10111C00D9F87B6803F1080104230422012000F0B4
:10112C00D1F87B685B7B052B03D97B685B7B0C2B35
:10113C0002D97B680A225A737B689B7B092B02D9E4
:10114C007B6806229A737B68DB7B002B03D07B6861
:10115C00DB7B042B02D97B680222DA737B689B68E9
:10116C000D4A934204D97B689B680C4A934202D97E
:10117C007B680B4A9A607B685B680A4A934204D985
:10118C007B685B68084A934202D97B68074A5A60BD
:10119C0000BF0837BD4680BDFF70C6090095BA0A6E
:1011AC000083400AFF4CD20840A15B09C01C3D09DA
:1011BC0080B584B000AF78600B46FB704FF4B47010
:1011CC0006F0C4F80346FB6001220121284802F016
:1011DC006AFB01220221264802F065FBFB687A6853
:1011EC00C3F86421FB68D3F8643101211846FFF77A
:1011FC00C1FB03461A46FB6883F82C20FB68FF22D0
:10120C0083F82D20FB68FC221A73FB6801221A74E8
:10121C00FB680B229A74FB682322DA74FB680C229D
:10122C001A75FB6812225A74FB6808225A75FB68FF
:10123C000022DA75FB6808221A76FB680C221A76F3
:10124C00FB6807225A76FB68002283F85B21F8685A
:10125C00FFF73CFFFB781946F868FFF79EFDF8682E
:10126C00FFF734FDFB6818461037BD4680BD00BF44
:10127C00000C014080B582B000AF78600B46FB706B
:10128C007B6893F82D30FA789A4214D17B6893F8E6
:10129C002C30052B11D0FB7819467868FFF77DFDB3
:1012AC007868FFF713FD7868FFF78CFE05217868E6
:1012BC00FFF7DDFC02E000BF00E000BF0837BD46D1
:1012CC0080BD000080B58AB004AFB96011461A46E3
:1012DC000346FB810B46BB811346FB80FB891B023B
:1012EC001AB2B7F90C3013431BB2FB82FA8A4FF4D3
:1012FC007A730293FB880193BB6800931023A0219F
:10130C00084803F091F803467B757B7D002B01D0D8
:10131C007B7D03E0052001F047FF7B7D18461837E5
:10132C00BD4680BD8000002080B58EB004AFB96092
:10133C0011461A460346FB810B46BB811346FB80C4
:10134C0000233B6107F1140300221A605A609A6073
:10135C00002387F82730FB88BA8907F11001F88938
:10136C00FFF7B0FF034687F826300023BB8411E05B
:10137C00BB8CBA6813441A78BB8C28333B4413F8E3
:10138C00183C9A4203D0012387F8273006E0BB8C27
:10139C000133BB84BA8CFB889A42E9D397F8273087
:1013AC00002B16D0FB891B021AB2B7F90C30134371
:1013BC001BB27B847A8C32230293FB880193BB682B
:1013CC0000931023A021074802F034FF034687F84E
:1013DC002630062001F0E8FE97F82630184628370C
:1013EC00BD4680BD8000002080B582B000AF786023
:1013FC00154BDB68144A43F02003D360124BDB68B7
:10140C00114A23F02003D3600F4BDB680E4A43F0E4
:10141C001003D3600C4BDB680B4A23F01003D36032
:10142C00094BDB68084A43F00803D360064BDB68C2
:10143C00054A23F00803D360786800F007F800BF72
:10144C000837BD4680BD00BF000C014080B582B09E
:10145C0000AF78607B680022DA607B6800225A60FB
:10146C007B6800229A6001F095FE02467B681A6048
:10147C007B6800221A617B6800229A617B680022DB
:10148C005A6100BF0837BD4680BD80B586B002AF3B
:10149C00786001233B7300237B730223FB73FB7B7C
:1014AC009BB207F10C024FF0FF3100919E2178683E
:1014BC0002F056FB034618461037BD4680BD80B57A
:1014CC0086B002AF786000233B7307F10C024FF03B
:1014DC00FF33009301239E21786802F041FB034601
:1014EC00FB73FB7B002B01D0002324E0012001F0D7
:1014FC005BFE07F10C024FF0FF33009302239F2198
:10150C00786802F02BFCFB7B002B01D0002312E04F
:10151C003B7B1B027A7B13431846FEF7CBFE03463C
:10152C004FF087411846FEF7CDFF03461846FFF7EC
:10153C008BF80346DBB218461037BD4680BD000061
:10154C0090B583B000AF564B564A1A6001F0CAFDF5
:10155C0000F0C2F800F018FA00F01AF900F060F987
:10156C0000F094F900F0BCF900F0E4F900F03EF959
:10157C00012220214C4802F096F94FF47A7001F0C8
:10158C0013FE01220821484802F08DF94FF47A70BD
:10159C0001F00AFE01221021434802F084F94FF4B5
:1015AC007A7001F001FE002001F0D9F803463F4AA1
:1015BC001360002001F047F903463D4A13603D4893
:1015CC00FFF712FF002001F063F903463A4A13605B
:1015DC0003213A48FFF7ECFD0346394A13603948BA
:1015EC00FFF753FF00220021252001F0D8FE252013
:1015FC0001F0F1FE01223449344805F06FF900F096
:10160C00A7FF00F067FF00F08DFF01F0C3FD7860CD
:10161C00294B1C6801F0BEFD034663632C4803F0A4
:10162C00B0FE002000F0D4FF03461A46294B1A8066
:10163C00012000F0CDFF03461A46264B5A80214864
:10164C00FFF73DFF03461A46224B9A801A4B1B6844
:10165C0041F288321F49184600F0D4FF164B196826
:10166C00134B1A68164B1B680E4800F035FD144BD3
:10167C001B6803211846FFF7FDFD114B1B680E4A32
:10168C0011680A4A1268184600F09AFE104803F0D6
:10169C0078FE786800F0F6FE786000BFC1E700BF06
:1016AC001002002034020020000C014070030020C6
:1016BC00780300201402002030020020E0000020FB
:1016CC0074030020800000207C03002038010020DF
:1016DC00D40000207800002080B594B000AF07F152
:1016EC00280328220021184605F0EEFE07F114030A
:1016FC0000221A605A609A60DA601A613B1D00225F
:10170C001A605A609A60DA600923BB624FF4803326
:10171C00FB6200233B630123BB6301233B64022375
:10172C007B644FF48033BB640023FB6407F1280314
:10173C00184603F035FE0346002B01D001F009F8E2
:10174C000F237B610223BB610023FB614FF4806399
:10175C003B6200237B6207F114030021184604F05E
:10176C00A1F80346002B01D000F0F3FF02237B60AD
:10177C000023FB603B1D184604F022FA0346002BA5
:10178C0001D000F0E6FF00BF5037BD4680BD000021
:10179C0080B500AF124B134A1A60114B124A5A60B3
:1017AC000F4B00229A600E4B0022DA600C4B4FF468
:1017BC0080421A610A4B00225A61094B00229A613D
:1017CC00074B0022DA61064B00221A62044802F031
:1017DC0083F80346002B01D000F0BBFF00BF80BD97
:1017EC008000002000540040A086010080B500AFAE
:1017FC00094B0A4A1A60084B05225A60064B40F204
:10180C0053729A60044803F07AFD0346002B01D012
:10181C0000F09FFF00BF80BDD400002000300040CE
:10182C0080B500AF174B184A1A60164B4FF48272F2
:10183C005A60144B00229A60124B0022DA60114B52
:10184C0000221A610F4B00225A610E4B4FF40072AA
:10185C009A610C4B1822DA610A4B00221A62094B6E
:10186C0000225A62074B00229A62064B0A22DA6265
:10187C00044804F05BFA0346002B01D000F069FF2A
:10188C0000BF80BDE00000200030014080B500AFFB
:10189C00114B124A1A60104B4FF496425A600E4B81
:1018AC0000229A600C4B0022DA600B4B00221A616A
:1018BC00094B0C225A61084B00229A61064B0022FC
:1018CC00DA61054804F0BAFF0346002B01D000F0A2
:1018DC0040FF00BF80BD00BF380100200038014030
:1018EC0080B500AF114B124A1A60104B4FF4E13225
:1018FC005A600E4B00229A600C4B0022DA600B4BA4
:10190C0000221A61094B0C225A61084B00229A6181
:10191C00064B0022DA61054804F090FF0346002BC9
:10192C0001D000F016FF00BF80BD00BF8001002079
:10193C000044004080B500AF114B124A1A60104BA6
:10194C004FF4E1325A600E4B00229A600C4B00228D
:10195C00DA600B4B00221A61094B0C225A61084BBE
:10196C0000229A61064B0022DA61054804F066FFFA
:10197C000346002B01D000F0ECFE00BF80BD00BF81
:10198C00C80100200048004080B588B000AF07F1C6
:10199C00100300221A605A609A60DA601E4B9B6931
:1019AC001D4A43F0200393611B4B9B6903F02003FA
:1019BC00FB60FB68184B9B69174A43F00403936167
:1019CC00154B9B6903F00403BB60BB68124B9B690E
:1019DC00114A43F0080393610F4B9B6903F0080312
:1019EC007B607B68002247F23B310C4801F05BFFC7
:1019FC0047F23B333B6101237B610023BB61022334
:101A0C00FB6107F110031946044801F0B1FD00BF5A
:101A1C002037BD4680BD00BF00100240000C0140C5
:101A2C0080B582B000AF786001220F490F4804F0F6
:101A3C0055FF0F4B19680E4B1B6893F83121501C46
:101A4C00C0B283F83101084B1B788B54064B1B78C2
:101A5C007F2B04D1064B1B68012283F8382100BF71
:101A6C000837BD4680BD00BF7C0300203801002034
:101A7C001002002080B586B000AFF860B9607A60C3
:101A8C003B600023FB75BB681B7A082B03D9BB6832
:101A9C001B7A0D2B01D9002372E23B685B7D1A4641
:101AAC00F968B86801F022F80346FB75BB681B782F
:101ABC00252B00F38B80102B54DA4AE2903B252B1C
:101ACC0000F2478201A252F823F000BF4F1D00081C
:101ADC005F1F00085F1F00085F1F00085F1F0008E2
:101AEC005F1F00085F1F00085F1F00085F1F0008D2
:101AFC005F1F00085F1F00085F1F00085F1F0008C2
:101B0C005F1F00085F1F00085F1F00085F1F0008B1
:101B1C005F1F00085F1F00085F1F00085F1F0008A1
:101B2C005F1F00085F1F00085F1F00085F1F000891
:101B3C005F1F00085F1F00085F1F00085F1F000881
:101B4C005F1F00085F1F00085F1F0008C91D000809
:101B5C001D1E00085F1F0008731E0008C31E00082E
:101B6C00131F0008103B152B00F2F38101A252F851
:101B7C0023F000BFC11C0008E71B00085F1F000812
:101B8C005F1F00085F1F00085F1F00085F1F000831
:101B9C005F1F00085F1F00085F1F00085F1F000821
:101BAC005F1F00085F1F00085F1F00085F1F000811
:101BBC005F1F00081D1C0008ED1B00085F1F0008BC
:101BCC00991C00084D1C0008751C0008B52B00F36F
:101BDC00C081902BBFF672AFBBE10023FB75B9E15E
:101BEC00FB7D5A1CFA751A46FB68134404221A70C2
:101BFC00FB7DFA681A447B689B681946104600F016
:101C0C00EFFFFB7D0433FB75FB7D0133FB75A1E11D
:101C1C00FB7D5A1CFA751A46FB68134404221A7091
:101C2C00FB7DFA681A447B685B681946104600F025
:101C3C00D7FFFB7D0433FB75FB7D0133FB7589E11D
:101C4C00FB7D5A1CFA751A46FB68134401221A7064
:101C5C007B685A7BFB7D591CF9751946FB680B4454
:101C6C00063AD2B21A7075E1FB7D5A1CFA751A4607
:101C7C00FB68134401221A70FB7D5A1CFA751A4634
:101C8C00FB6813447A68D27B1A7063E1FB7D5A1CA3
:101C9C00FA751A46FB68134401221A707B689A7B0A
:101CAC00FB7D591CF9751946FB680B440132D2B205
:101CBC001A704FE10023FB75FB7D5A1CFA751A460E
:101CCC00FB6813447E221A70FB7D5A1CFA751A4667
:101CDC00FB6813443A68527D1A70FB7D5A1CFA75E6
:101CEC001A46FB681344BA68127C1A70FB7D5A1CA6
:101CFC00FA751A46FB68134410221A70FB7D5A1CA5
:101D0C00FA751A46FB68134400221A70FB7D5A1CA4
:101D1C00FA751A46FB68134402221A70FB7D5A1C92
:101D2C00FA751A46FB6813443A68527D1A70FB7DAB
:101D3C005A1CFA751A46FB681344BA68127C1A705E
:101D4C0008E1BB685B6806331A783B685A75BB6858
:101D5C005B6807331A783B681A753B681A7DBB6859
:101D6C001A743B685B7D1A46F968B86800F0BEFED1
:101D7C000346FB75FB7D5A1CFA751A46FB68134427
:101D8C0000221A70FB7D5A1CFA751A46FB68134424
:101D9C00BA68127C1A707C4B1B6803F12D0101236D
:101DAC0003220020FFF7C0FA774B1B6803F12C01CC
:101DBC00012304220020FFF7B7FACBE0FB7D5A1C6D
:101DCC00FA751A46FB68134404221A70BB685A68E9
:101DDC00FB7D1344184600F0D1FE03461A467B687F
:101DEC005A60FB7D0433FB757B68191D04230022AC
:101DFC000120FFF799FA0346BB757B6893F82D30E9
:101E0C0019467868FEF7C9FF7868FEF75FFFA1E016
:101E1C00FB7D5A1CFA751A46FB68134404221A708F
:101E2C00BB685A68FB7D1344184600F0A7FE0346B6
:101E3C001A467B689A60FB7D0433FB757B6803F163
:101E4C000801042304220120FFF76EFA0346BB7538
:101E5C007B6893F82D3019467868FEF79EFF7868FA
:101E6C00FEF734FF76E0FB7D5A1CFA751A46FB68C8
:101E7C00134401221A70BB685A68FB7D591CF97512
:101E8C0013441B78013BDAB27B689A737B6803F1CD
:101E9C000E01012301220020FFF746FA0346BB7511
:101EAC007B6893F82D3019467868FEF776FF7868D2
:101EBC00FEF70CFF4EE0FB7D5A1CFA751A46FB68C8
:101ECC00134401221A70BB685A68FB7D591CF975C2
:101EDC0013441B780633DAB27B685A737B6803F1C0
:101EEC000D01012300220020FFF71EFA0346BB75EB
:101EFC007B6893F82D3019467868FEF74EFF7868AA
:101F0C00FEF7E4FE26E0FB7D5A1CFA751A46FB68C8
:101F1C00134401221A70BB685A68FB7D591CF97571
:101F2C0013441A787B68DA737B6803F10F01012381
:101F3C0002220020FFF7F8F90346BB757B6893F883
:101F4C002D3019467868FEF728FF7868FEF7BEFE3C
:101F5C0000E000BFFB7D1946F86800F09FFD0346CA
:101F6C001A46FB7D1344FB75FB7D5A1CFA751A4609
:101F7C00FB6813447F221A70BB680D225A74FB7DD8
:101F8C0018461837BD4680BD7003002080B582B05E
:101F9C0000AF78607B684FF496720021184605F00C
:101FAC0093FA7B68002283F8312100BF0837BD46C5
:101FBC0080BD000080B584B000AF786039607B686C
:101FCC00DA7B7B689A737B685A683B68C3F85C2140
:101FDC007B681A7A3B6883F8602102213868FEF727
:101FEC00DCFE3868FFF75FF83B6893F82E30032B64
:101FFC0004D1012208210D4801F055FC01F0CAF86A
:10200C00F86003213868FEF7C8FE00220821074853
:10201C0001F049FC01F0BEF80246FB68D21A3B689D
:10202C009A6200BF1037BD4680BD00BF000C014056
:10203C0080B586B000AFF860B9607A603B60BB6871
:10204C001B78132B10D10023FB7509E0FB7DBA68BC
:10205C001344DB7C184600F0F3FFFB7D0133FB756A
:10206C00FB7D0E2BF2D933E0192005F06FF90346F6
:10207C001A46FB68C3F82C21FB68D3F82C013B688B
:10208C007A68B968FFF7F6FC03461A46FB6883F8D2
:10209C0030210023BB750BE0FB68D3F82C21BB7DF2
:1020AC0013441B78184600F0CBFFBB7D0133BB7586
:1020BC00FB6893F83031BA7D9A42EDD3FB6800226D
:1020CC0083F83021FB68D3F82C31184605F046F91B
:1020DC0000BF1837BD4680BD80B584B000AFF86036
:1020EC00B9607A603B60FB6893F8383183F0010388
:1020FC00DBB2002B3ED1FB68002283F83821FA6852
:10210C00FB6893F831311946104600F098FC0346F1
:10211C00002B0BD0FB684FF496720021184605F08B
:10212C00D3F9FB68002283F8312124E0F968FB68BD
:10213C0093F831311A46B86800F06AFDBB68DA7B57
:10214C00BB681B7C9A4206D17B683A68B968F86810
:10215C00FFF76EFF07E0BB681B78002B03D03968D4
:10216C00B868FFF727FFF868FFF710FFB86800F0B2
:10217C00A7FB00E000BF1037BD4680BD80B584B022
:10218C0000AF78604FF0FF33BB607B681B78342B5B
:10219C0000F3D280002B5FDAFCE0903B2B2B00F29B
:1021AC00F98001A252F823F051230008A123000862
:1021BC00A1230008A1230008A1230008A1230008E3
:1021CC00A1230008A1230008A1230008A1230008D3
:1021DC00A1230008A1230008A1230008A1230008C3
:1021EC00A1230008A1230008A1230008A1230008B3
:1021FC00A1230008A1230008A1230008A1230008A3
:10220C00A1230008A1230008A1230008A123000892
:10221C00A1230008A1230008A1230008A123000882
:10222C00A1230008A1230008512300085123000812
:10223C0051230008512300085123000851230008A2
:10224C00792300085123000851230008512300086A
:10225C005123000851230008342B00F29B8001A26B
:10226C0052F823F051230008A1230008A1230008F1
:10227C00A1230008A1230008A1230008A123000822
:10228C00A1230008A1230008A1230008A123000812
:10229C00A1230008A1230008A1230008A123000802
:1022AC00A1230008512300085123000851230008E2
:1022BC005123000851230008A1230008A123000882
:1022CC00A1230008A1230008A1230008A1230008D2
:1022DC00A1230008A1230008A1230008A1230008C2
:1022EC00A1230008512300085123000851230008A2
:1022FC00512300085123000851230008A123000892
:10230C00A1230008A1230008A1230008A123000891
:10231C00A1230008A1230008A1230008A123000881
:10232C00A1230008A1230008512300085123000811
:10233C005123000851230008BB2B2BDC902BBFF63C
:10234C002CAF27E00023FB730AE07B685A68FB7B09
:10235C0013441B78184600F073FEFB7B0133FB73B0
:10236C007B681B7AFA7B9A42EFD325E00023BB7380
:10237C000AE07B685A68BB7B13441B78184600F054
:10238C005FFEBB7B0133BB737B681B7ABA7B9A42C3
:10239C00EFD311E000237B730AE07B7B10333B44CB
:1023AC0013F8083C184600F04BFE7B7B01337B7323
:1023BC007B7B032BF1D900BF00BF1037BD4680BD1E
:1023CC0080B586B000AFF860B9607A604FF4804198
:1023DC002B4801F051FA0346002B4AD0F868FEF75F
:1023EC00AFFDF868FEF75FFCFB6803F12F02FB689A
:1023FC0093F85B311946104600F021FB0346002B85
:10240C0039D1FB6803F12F01FB6893F85B311A4655
:10241C00B86800F0FDFBBB68DA7BBB689B7B9A421B
:10242C0003D0BB6805225A7426E0012210211448FF
:10243C0001F039FAB868FFF7A1FEB86800F040FA6D
:10244C00FB68002283F85B210021F868FEF70FFC83
:10245C000023FB75FB68D3F8640107F11702012315
:10246C000D21FEF7B3FA00221021054801F01BFAEA
:10247C0002E000BF00E000BF1837BD4680BD00BFC2
:10248C00000C014080B582B000AF786000F082FE95
:10249C0002467B68D31AB3F57A7F08D900F07AFE2E
:1024AC007860012220210A4801F0FDF90BE000F0D0
:1024BC0071FE02467B68D31A322B04D900222021EC
:1024CC00034801F0F0F97B6818460837BD4680BD1B
:1024DC00000C014080B400AF104B9B690F4A43F4D1
:1024EC00007393610D4B9B690C4A43F00403936199
:1024FC000B4B9B680A4A43F4F0139360084B9B68A0
:10250C00074A43F400039360054B9B68044A43F06D
:10251C000103936000BFBD4680BC704700100240B1
:10252C000024014080B400AF084B9B68074A43F07D
:10253C000403936000BF054B9B6803F00403002B5E
:10254C00F9D100BF00BFBD4680BC704700240140DC
:10255C0080B400AF0A4B9B69094A43F004039361B2
:10256C00084B1B68074A23F00F031360054B5B688D
:10257C00044A23F47043536000BFBD4680BC7047CF
:10258C00001002400008014080B483B000AF034645
:10259C00FB710E4B5B6B0D4A23F01F0353630B4B0C
:1025AC005A6BFB79094913434B63084B9B68074AE9
:1025BC0043F001039360054B9B68044A43F480038A
:1025CC00936000BF0C37BD4680BC704700240140AF
:1025DC0080B584B000AF0346FB71FB791846FFF75A
:1025EC00D3FF00BF064B1B6803F00203002BF9D08E
:1025FC00034BDB6CFB81FB8918461037BD4680BD55
:10260C000024014080B586B000AFF860B9607A60F4
:10261C0000F0C0FD0246FB685B6BD31A7A689A42E5
:10262C0080F093800023FB750523BB75FB68133387
:10263C000E220021184604F047FFFB7D5A1CFA7548
:10264C001A46FB6813447E22DA74FB7D5A1CFA7519
:10265C001A46FB6813440022DA74FB7D5A1CFA7587
:10266C001946FB681A7CFB680B44DA74FB7D5A1C18
:10267C00FA751A46FB6813441322DA74FB7D5A1C54
:10268C00FA751A46FB6813440022DA74FB7D5A1C57
:10269C00FA751A46FB681344BA7DDA74BB681B885A
:1026AC009AB2FB7D591CF9751946D2B2FB680B44E2
:1026BC00DA74BB681B889BB21B0A9AB2FB7D591C4F
:1026CC00F9751946D2B2FB680B44DA74BB68023355
:1026DC001B889AB2FB7D591CF9751946D2B2FB685E
:1026EC000B44DA74BB6802331B889BB21B0A9AB288
:1026FC00FB7D591CF9751946D2B2FB680B44DA7490
:10270C00BB6804331B889AB2FB7D591CF9751946BA
:10271C00D2B2FB680B44DA74FB681333FA7D1146B2
:10272C00184600F0BBF903461A46FB7D1344FB75B3
:10273C00FB7D5A1CFA751A46FB6813447F22DA7427
:10274C0000F028FD0246FB685A6300BF1837BD46EF
:10275C0080BD80B400AF72B600BF00BFFDE780B58E
:10276C0084B000AF0346FB71382004F0EFFD034644
:10277C00FB60FB6800221A80FB6800225A80FB6811
:10278C0000229A80FB680022DA80FB6800221A8102
:10279C00FB6800225A81FB6800229A81FB680022A8
:1027AC00DA81FB6800221A82FB684FF000029A6102
:1027BC00FB684FF00002DA61FB6800221A84FB68A8
:1027CC00002283F82220FB6800229A84FB680022F6
:1027DC0083F82620FB684FF000029A61FB684FF0EB
:1027EC000002DA61FB6800221A84FB6800229A74EA
:1027FC00FB680022DA74FB6800221A75FB68002261
:10280C005A75FB68002283F82720FB68002283F8A6
:10281C002820FB68002283F83420FB68002283F810
:10282C002E20FB68FA7983F82D20FB68002283F8B0
:10283C002C2000F0AFFC0246FB681A63FB681846BC
:10284C001037BD4680BD80B584B000AF0346FB7128
:10285C001C2004F07BFD0346FB60FB68002B12D0B0
:10286C00FB6800221A80FB684FF000029A60FB683C
:10287C0000221A82FB6800221A75FB68FA795A75D5
:10288C00FB6800229A61FB6818461037BD4680BD74
:10289C0080B584B000AF0346FB71382004F056FDC0
:1028AC000346FB60FB6808225A74FB6800221A700E
:1028BC00FB68FA791A74FB6818461037BD4680BD60
:1028CC0080B483B000AF78607B6800221A707B689C
:1028DC0000229A817B6800225A817B6808225A74F4
:1028EC007B680022DA7300BF0C37BD4680BC704792
:1028FC0080B485B000AF78600B46FB700323FB609F
:10290C000AE0FB687A6813441B787F2B01D10923FA
:10291C0007E0FB680133FB60FB78FA689A42F0DB56
:10292C00042318461437BD4680BC704780B483B06E
:10293C0000AF78600B46FB70FB78062B10D97B68D8
:10294C001B787E2B0AD1FB78013B7A6813441B78E9
:10295C007F2B01D1022304E0012302E0032300E0DA
:10296C00082318460C37BD4680BC704780B584B030
:10297C0000AF78600B46FB70FB78023B7A6813441F
:10298C001B781B02FB81FB78033B7A6813441B7892
:10299C001A46FB891343FB817B685A1CFB78043B6A
:1029AC00DBB21946104600F00DF80346BB81BA891C
:1029BC00FB899A4201D1002300E006231846103708
:1029CC00BD4680BD80B485B000AF78600B46FB700F
:1029DC0041F221037B810023BB810023FB7324E0A4
:1029EC00FB7B7A6813441B781B029AB2BB89534059
:1029FC00BB810023BB7312E0B7F90C30002B08DA53
:102A0C00BB895B001AB2B7F90A3053401BB2BB81C9
:102A1C0002E0BB895B00BB81BB7B0133BB73BB7B1F
:102A2C00072BE9D9FB7B0133FB73FA7BFB789A42CA
:102A3C00D6D3BB8918461437BD4680BC704780B5C9
:102A4C0084B000AF78600B46FB70FB781946786851
:102A5C00FFF76CFF0346FB73FB7B022B01D0FB7B68
:102A6C0018E0FB7819467868FFF742FF0346BB7302
:102A7C00BB7B092B01D0BB7B0CE0FB78194678683B
:102A8C00FFF774FF03467B737B7B002B01D07B7BB2
:102A9C0000E0002318461037BD4680BD80B584B0D9
:102AAC0000AF78600B46FB707B685A1CFB78013BCF
:102ABC00DBB219461046FFF785FF03467B817B8905
:102ACC00BB81FB785A1CFA701A467B6813443A7B1C
:102ADC001A70FB785A1CFA701A467B6813447A7B7E
:102AEC001A70022318461037BD4680BD80B487B0DB
:102AFC0000AFF860B9601346FB710023FB75FB68EF
:102B0C001B78002B01D1FB7D33E0FB681B7C002B79
:102B1C0004D1FB79002B01D0FB7D2AE0FB7D5A1CF4
:102B2C00FA751A46BB6813447E221A70FB7D5A1C38
:102B3C00FA751A46BB681344FA791A70FB7D5A1C55
:102B4C00FA751A46BB681344FA68127C1A70FB7D3E
:102B5C005A1CFA751A46BB681344FA6812781A7034
:102B6C00FB7D5A1CFA751A46BB68134400221A7076
:102B7C00FB7D18461C37BD4680BC704780B584B0C1
:102B8C0000AF78600023FB60FB687A68127813430F
:102B9C00FB60FA687B6801331B781B021343FB60F4
:102BAC00FA687B6802331B781B041343FB60FA68DA
:102BBC007B6803331B781B061343FB60FB680749D8
:102BCC001846FDF7CBFB0346FB60FB681846FDF788
:102BDC0015FD034618461037BD4680BD00247449C8
:102BEC0080B584B000AF786039603868FDF75EFB63
:102BFC00034606491846FDF765FC0346FB60FA6878
:102C0C007B681A6000BF1037BD4680BD0024744934
:102C1C0080B485B000AFF860B9601346FB71BB6837
:102C2C00002B12D0FB79002B11D0BB6803331A7820
:102C3C00FB681A70BB689A78FB68DA73FB68FA79E0
:102C4C001A72FB68BA685A6002E000BF00E000BF6D
:102C5C001437BD4680BC704780B485B000AF154BAF
:102C6C009B69144A43F001039361124B9B6903F077
:102C7C000103BB60BB680F4BDB690E4A43F080530A
:102C8C00D3610C4BDB6903F080537B607B680A4B90
:102C9C005B68FB60FB6823F0E063FB60FB6843F060
:102CAC000073FB60044AFB68536000BF1437BD46D9
:102CBC0080BC7047001002400000014080B588B015
:102CCC0000AF786007F1100300221A605A609A6016
:102CDC00DA607B681B68154A934223D1144B9B69BD
:102CEC00134A43F008039361114B9B6903F00803EB
:102CFC00FB60FB68C0233B6112237B610323FB61F8
:102D0C0007F1100319460B4800F032FC084BDB6945
:102D1C00074A43F40013D361054BDB6903F400133A
:102D2C00BB60BB6800BF2037BD4680BD005400406F
:102D3C0000100240000C014080B588B000AF7860F4
:102D4C0007F1100300221A605A609A60DA607B68FF
:102D5C001B681B4A93422FD11A4B9B69194A43F4A7
:102D6C0080539361174B9B6903F48053FB60FB68A2
:102D7C00144B9B69134A43F004039361114B9B69F9
:102D8C0003F00403BB60BB68A0233B6102237B619F
:102D9C000323FB6107F1100319460B4800F0E8FB15
:102DAC0040233B6100237B610023BB6107F11003CF
:102DBC001946054800F0DCFB00BF2037BD4680BD3E
:102DCC0000300140001002400008014080B58CB07A
:102DDC0000AF786007F1200300221A605A609A60F5
:102DEC00DA607B681B68574A93423AD1564B9B6911
:102DFC00554A43F480439361534B9B6903F48043DE
:102E0C00FB61FB69504B9B694F4A43F00403936190
:102E1C004D4B9B6903F00403BB61BB694FF400731A
:102E2C003B6202237B620323FB6207F120031946FA
:102E3C00464800F09DFB4FF480633B6200237B62AD
:102E4C000023BB6207F120031946404800F090FBB9
:102E5C0000220021252000F0A2FA252000F0BBFA68
:102E6C006CE07B681B683A4A934230D1364BDB6985
:102E7C00354A43F40033D361334BDB6903F400333D
:102E8C007B617B69304B9B692F4A43F00403936150
:102E9C002D4B9B6903F004033B613B6904233B62AC
:102EAC0002237B620323FB6207F1200319462748A8
:102EBC0000F05EFB08233B6200237B620023BB62B5
:102ECC0007F120031946214800F052FB36E07B68DD
:102EDC001B68204A934231D11B4BDB691A4A43F4DD
:102EEC008023D361184BDB6903F48023FB60FB6800
:102EFC00154B9B69144A43F008039361124B9B6971
:102F0C0003F00803BB60BB684FF480633B62022391
:102F1C007B620323FB6207F1200319460E4800F085
:102F2C0027FB4FF400633B6200237B620023BB62F0
:102F3C0007F120031946084800F01AFB00BF303790
:102F4C00BD4680BD00380140001002400008014021
:102F5C000044004000480040000C014080B400AF29
:102F6C0000BFFDE780B400AF00BFFDE780B400AF49
:102F7C0000BFFDE780B400AF00BFFDE780B400AF39
:102F8C0000BFFDE780B400AF00BFBD4680BC7047FA
:102F9C0080B400AF00BFBD4680BC704780B400AFAA
:102FAC0000BFBD4680BC704780B500AF00F0E0F8B4
:102FBC0000BF80BD80B500AF024803F0B5FC00BF78
:102FCC0080BD00BF3801002080B586B000AF7860AE
:102FDC00144A154BD31A7B617B693B61134B1B68FD
:102FEC00002B02D1114B124A1A60104B1A687B68E5
:102FFC0013443A699A4207D204F07EFA03460C2233
:10300C001A604FF0FF3309E0084B1B68FB60074B5D
:10301C001A687B681344054A1360FB681846183716
:10302C00BD4680BD0050002000040000800300203D
:10303C00D004002080B400AF00BFBD4680BC7047F8
:10304C0080B483B000AF0346FB71114BDB68104AB0
:10305C0043F48073D36000BF0E4B1B6803F08003F6
:10306C00002BF9D00B4AFB79536000BF094B1B684E
:10307C0003F04003002BF9D0054BDB68044A23F422
:10308C008073D36000BF0C37BD4680BC704700BF57
:10309C00000C0140003801400C480D490D4A00233A
:1030AC0002E0D458C4500433C4188C42F9D30A4AF1
:1030BC000A4C002301E013600432A242FBD3FFF759
:1030CC00B9FF04F01FFAFEF73BFA7047000000202E
:1030DC005C000020407600085C000020D00400203A
:1030EC00FEE7000080B500AF084B1B68074A43F0B1
:1030FC0010031360032000F047F90F2000F008F8CC
:10310C00FFF7AAFD0023184680BD00BF0020024037
:10311C0080B582B000AF7860124B1A68124B1B78E6
:10312C0019464FF47A73B3FBF1F3B2FBF3F3184681
:10313C0000F05FF90346002B01D001230EE07B6801
:10314C000F2B0AD8002279684FF0FF3000F027F9D6
:10315C00064A7B681360002300E0012318460837F9
:10316C00BD4680BD000000200800002004000020A7
:10317C0080B400AF054B1B781A46054B1B681344F3
:10318C00034A136000BFBD4680BC70470800002096
:10319C008403002080B400AF024B1B681846BD4668
:1031AC0080BC70478403002080B584B000AF786089
:1031BC00FFF7F0FFB8607B68FB60FB68B3F1FF3F83
:1031CC0005D00A4B1B781A46FB681344FB6000BF02
:1031DC00FFF7E0FF0246BB68D31AFA689A42F7D8A9
:1031EC0000BF00BF1037BD4680BD00BF08000020E7
:1031FC0080B485B000AF78607B6803F00703FB6098
:10320C000C4BDB68BB60BA684FF6FF031340BB6026
:10321C00FB681A02BB68134343F0BF6343F40033EB
:10322C00BB60044ABB68D36000BF1437BD4680BC8A
:10323C00704700BF00ED00E080B400AF044BDB68CA
:10324C001B0A03F007031846BD4680BC704700BF3D
:10325C0000ED00E080B483B000AF0346FB7197F93A
:10326C000730002B0BDBFB7903F01F02064997F9A3
:10327C0007305B09012000FA02F241F8232000BF5D
:10328C000C37BD4680BC704700E100E080B483B0D1
:10329C0000AF03463960FB7197F90730002B0ADB4E
:1032AC003B68DAB20C4997F907301201D2B20B44E1
:1032BC0083F800230AE03B68DAB20849FB7903F093
:1032CC000F03043B1201D2B20B441A7600BF0C3729
:1032DC00BD4680BC704700BF00E100E000ED00E09F
:1032EC0080B489B000AFF860B9607A60FB6803F015
:1032FC000703FB61FB69C3F10703042B28BF0423FD
:10330C00BB61FB690433062B02D9FB69033B00E06C
:10331C0000237B614FF0FF32BB6902FA03F3DA43FF
:10332C00BB681A407B699A404FF0FF317B6901FA08
:10333C0003F3D9437B680B40134318462437BD462F
:10334C0080BC704780B582B000AF78607B68013B71
:10335C00B3F1807F01D301230FE00A4A7B68013B64
:10336C0053600F214FF0FF30FFF790FF054B002209
:10337C009A60044B07221A60002318460837BD4692
:10338C0080BD00BF10E000E080B582B000AF786077
:10339C007868FFF72DFF00BF0837BD4680BD80B5AC
:1033AC0086B000AF0346B9607A60FB7300237B6183
:1033BC00FFF742FF78617A68B9687869FFF790FF88
:1033CC00024697F90F3011461846FFF75FFF00BF12
:1033DC001837BD4680BD80B582B000AF0346FB7187
:1033EC0097F907301846FFF735FF00BF0837BD4681
:1033FC0080BD80B582B000AF78607868FFF7A2FF1F
:10340C00034618460837BD4680BD80B485B000AF72
:10341C0078600023FB737B6893F82130DBB2022BBE
:10342C0008D07B6804229A637B68002283F82020F2
:10343C00012320E07B681B681A687B681B6822F0FC
:10344C000E021A607B681B681A687B681B6822F086
:10345C0001021A607B681A6C7B68DB6B012101FA34
:10346C0002F25A607B68012283F821207B680022DB
:10347C0083F82020FB7B18461437BD4680BC704770
:10348C0080B584B000AF78600023FB737B6893F841
:10349C002130DBB2022B05D07B6804229A63012316
:1034AC00FB7351E07B681B681A687B681B6822F011
:1034BC000E021A607B681B681A687B681B6822F016
:1034CC0001021A607B681B68224A934229D07B68F0
:1034DC001B68214A934222D07B681B681F4A934287
:1034EC001AD07B681B681E4A934212D07B681B68FB
:1034FC001C4A93420AD07B681B681B4A934202D138
:10350C004FF480130EE04FF080730BE04FF48033D8
:10351C0008E04FF4805305E04FF4807302E0102371
:10352C0000E00123114A53607B68012283F82120BB
:10353C007B68002283F820207B685B6B002B03D018
:10354C007B685B6B78689847FB7B18461037BD46E9
:10355C0080BD00BF080002401C0002403000024049
:10356C0044000240580002406C000240000002403F
:10357C0080B48BB000AF7860396000237B6200238D
:10358C003B6269E101227B6A02FA03F3FB613B684F
:10359C001B68FA691340BB61BA69FB699A4240F037
:1035AC0058813B685B689A4A93425ED0984A934232
:1035BC0075D8984A934258D0964A93426FD8964AF7
:1035CC00934252D0944A934269D8944A93424CD035
:1035DC00924A934263D8924A934246D0904A93427D
:1035EC005DD8122B2AD8122B59D801A252F823F0ED
:1035FC00773600085136000863360008A5360008F7
:10360C00AB360008AB360008AB360008AB3600080A
:10361C00AB360008AB360008AB360008AB360008FA
:10362C00AB360008AB360008AB360008AB360008EA
:10363C00AB360008593600086D360008794A9342BB
:10364C0013D02CE03B68DB683B6229E03B68DB680D
:10365C0004333B6224E03B68DB6808333B621FE0C9
:10366C003B68DB680C333B621AE03B689B68002BC1
:10367C0002D104233B6213E03B689B68012B05D10C
:10368C0008233B627B68FA691A6109E008233B62F4
:10369C007B68FA695A6103E000233B6200E000BFDB
:1036AC00BB69FF2B01D87B6801E07B6804337B612D
:1036BC00BB69FF2B02D87B6A9B0002E07B6A083B4C
:1036CC009B003B617B691A680F213B6901FA03F38C
:1036DC00DB431A40396A3B6901FA03F31A437B69ED
:1036EC001A603B685B6803F08053002B00F0B180DC
:1036FC004D4B9B694C4A43F0010393614A4B9B69C8
:10370C0003F00103BB60BB68484A7B6A9B08023329
:10371C0052F82330FB607B6A03F003039B000F22FB
:10372C0002FA03F3DB43FA681340FB607B68404A00
:10373C00934213D07B683F4A93420DD07B683E4A3C
:10374C00934207D07B683D4A934201D1032306E0A4
:10375C00042304E0022302E0012300E000237A6A40
:10376C0002F0030292009340FA681343FB602F4966
:10377C007B6A9B080233FA6841F823203B685B683C
:10378C0003F48013002B06D02D4B9A682C49BB698F
:10379C0013438B6006E02A4B9A68BB69DB432849CC
:1037AC0013408B603B685B6803F40013002B06D05E
:1037BC00234BDA682249BB691343CB6006E0204BEC
:1037CC00DA68BB69DB431E491340CB603B685B681E
:1037DC0003F40033002B06D0194B5A681849BB6907
:1037EC0013434B6006E0164B5A68BB69DB43144924
:1037FC0013404B603B685B6803F48033002B21D093
:10380C000F4B1A680E49BB6913430B6021E000BFD4
:10381C0000003210000031100000221000002110B6
:10382C0000001210000011100010024000000140B6
:10383C0000080140000C0140001001400014014040
:10384C00000401400B4B1A68BB69DB430949134068
:10385C000B607B6A01337B623B681A687B6A22FAD5
:10386C0003F3002B7FF48EAE00BF00BF2C37BD4698
:10387C0080BC70470004014080B485B000AF786014
:10388C000B467B807B689A687B881340002B02D0A8
:10389C000123FB7301E00023FB73FB7B18461437F9
:1038AC00BD4680BC704780B483B000AF78600B46D7
:1038BC007B8013467B707B78002B03D07A887B68E7
:1038CC001A6103E07B881A047B681A6100BF0C370D
:1038DC00BD4680BC7047000080B584B000AF7860F6
:1038EC007B68002B01D101232BE17B6893F83D30E1
:1038FC00DBB2002B06D17B68002283F83C20786871
:10390C00FFF7DCF97B68242283F83D207B681B6879
:10391C001A687B681B6822F001021A607B681B68BE
:10392C001A687B681B6842F400421A607B681B684B
:10393C001A687B681B6822F400421A6002F0FAF8DD
:10394C00F8607B685B68814A934207D8FB68804AC1
:10395C00934294BF01230023DBB206E0FB687D4A4F
:10396C00934294BF01230023DBB2002B01D001232F
:10397C00E7E0FB68784AA2FB03239B0CBB607B68E7
:10398C001B685B6823F03F017B681B68BA680A43BD
:10399C005A607B681B681B6A23F03F017B685B687D
:1039AC006A4A934202D8BB68013309E0BB684FF402
:1039BC00967202FB03F3694AA2FB03239B090133B2
:1039CC007A6812680B4313627B681B68DB6923F40B
:1039DC004F4222F0FF027B685B685C498B4219D82E
:1039EC00FB68591E7B685B685B00B1FBF3F3591CE9
:1039FC0040F6FC730B40002B0AD0FB68591E7B6809
:103A0C005B685B00B1FBF3F30133C3F30B0351E0D1
:103A1C0004234FE07B689B68002B11D1FB68581E78
:103A2C007B6859680B465B000B44B0FBF3F3013326
:103A3C00C3F30B03002B0CBF01230023DBB212E0FA
:103A4C00FB68581E7B6859680B469B000B44990019
:103A5C000B44B0FBF3F30133C3F30B03002B0CBF8C
:103A6C0001230023DBB2002B01D0012322E07B6871
:103A7C009B68002B0ED1FB68581E7B6859680B465F
:103A8C005B000B44B0FBF3F30133C3F30B0343F4C0
:103A9C0000430FE0FB68581E7B6859680B469B007F
:103AAC000B4499000B44B0FBF3F30133C3F30B034A
:103ABC0043F44043796809681343CB617B681B6806
:103ACC001B6823F0C0017B68DA697B681B6A1A43A8
:103ADC007B681B680A431A607B681B689B6823F42D
:103AEC00034323F0FF037A6811697A68D2681143A3
:103AFC007A6812680B4393607B681B68DB6823F061
:103B0C00FF017B685A697B689B691A437B681B6859
:103B1C000A43DA607B681B681A687B681B6842F092
:103B2C0001021A607B6800221A647B68202283F8E9
:103B3C003D207B6800221A637B68002283F83E20BC
:103B4C00002318461037BD4680BD00BFA08601007B
:103B5C007F841E00FF083D0083DE1B43D34D6210A3
:103B6C0080B588B002AFF8607A601A460B467B814C
:103B7C0013463B81FFF70EFB7861FB6893F83D30F1
:103B8C00DBB2202B40F0E0807B69009319230122EB
:103B9C007049F86801F07EF90346002B01D002232E
:103BAC00D3E0FB6893F83C30012B01D10223CCE02D
:103BBC00FB68012283F83C20FB681B681B6803F040
:103BCC000103012B07D0FB681B681A68FB681B6894
:103BDC0042F001021A60FB681B681A68FB681B68DC
:103BEC0022F400621A60FB68212283F83D20FB68F6
:103BFC00102283F83E20FB6800221A64FB687A6866
:103C0C005A62FB683A895A85FB685B8D9AB2FB68ED
:103C1C001A85FB68504ADA6279897B693A6AF868D6
:103C2C0000F06AFE0346002B01D001238DE0002337
:103C3C003B61FB681B685B693B61FB681B689B69AC
:103C4C003B613B6966E07A69396AF86801F03CFAD5
:103C5C000346002B0DD0FB681B6C042B07D1FB68B3
:103C6C001B681A68FB681B6842F400721A60012317
:103C7C006BE0FB685B6A1A78FB681B681A61FB686F
:103C8C005B6A5A1CFB685A62FB685B8D9BB2013BFA
:103C9C009AB2FB685A85FB681B8D013B9AB2FB6894
:103CAC001A85FB681B685B6903F00403042B1BD1AA
:103CBC00FB681B8D002B17D0FB685B6A1A78FB68BE
:103CCC001B681A61FB685B6A5A1CFB685A62FB68CA
:103CDC005B8D9BB2013B9AB2FB685A85FB681B8DCE
:103CEC00013B9AB2FB681A857A69396AF86801F067
:103CFC0033FA0346002B0DD0FB681B6C042B07D149
:103D0C00FB681B681A68FB681B6842F400721A6037
:103D1C0001231AE0FB681B8D002B94D1FB681B68F8
:103D2C001A68FB681B6842F400721A60FB68202258
:103D3C0083F83D20FB68002283F83E20FB680022BC
:103D4C0083F83C20002300E0022318461837BD46B8
:103D5C0080BD00BF020010000000FFFF80B58CB0DA
:103D6C0002AFF8607A601A460B467B8113463B81A2
:103D7C0000233B62FFF70EFA7862FB6893F83D3044
:103D8C00DBB2202B40F04B827B6A0093192301227B
:103D9C007F49F86801F07EF80346002B01D002231E
:103DAC003EE2FB6893F83C30012B01D1022337E251
:103DBC00FB68012283F83C20FB681B681B6803F03E
:103DCC000103012B07D0FB681B681A68FB681B6892
:103DDC0042F001021A60FB681B681A68FB681B68DA
:103DEC0022F400621A60FB68222283F83D20FB68F3
:103DFC00102283F83E20FB6800221A64FB687A6864
:103E0C005A62FB683A895A85FB685B8D9AB2FB68EB
:103E1C001A85FB685F4ADA6279897B6A3A6BF868C3
:103E2C0000F0ECFD0346002B01D00123F8E1FB6808
:103E3C001B8D002B13D10023FB61FB681B685B6996
:103E4C00FB61FB681B689B69FB61FB69FB681B687A
:103E5C001A68FB681B6842F400721A60CCE1FB68BC
:103E6C001B8D012B1ED1FB681B681A68FB681B6835
:103E7C0022F480621A6072B600BF0023BB61FB683B
:103E8C001B685B69BB61FB681B689B69BB61BB6999
:103E9C00FB681B681A68FB681B6842F400721A60A6
:103EAC0062B635E0FB681B8D022B1ED1FB681B68CC
:103EBC001A68FB681B6842F400621A6072B600BF95
:103ECC0000237B61FB681B685B697B61FB681B687B
:103EDC009B697B617B69FB681B681A68FB681B68C4
:103EEC0022F480621A6062B612E0FB681B681A68E2
:103EFC00FB681B6842F480621A6000233B61FB681C
:103F0C001B685B693B61FB681B689B693B613B6998
:103F1C0072E1FB681B8D032B00F21F81FB681B8D6C
:103F2C00012B23D17A6A396BF86801F05DF90346ED
:103F3C00002B01D0012373E1FB681B681A69FB6835
:103F4C005B6AD2B21A70FB685B6A5A1CFB685A62D5
:103F5C00FB681B8D013B9AB2FB681A85FB685B8D75
:103F6C009BB2013B9AB2FB685A8545E1FB681B8DFD
:103F7C00022B52D17B6A00933B6B00220649F868F6
:103F8C0000F088FF0346002B08D0012348E100BF56
:103F9C00020010000000FFFF0400010072B600BF19
:103FAC00FB681B681A68FB681B6842F400721A6095
:103FBC00FB681B681A69FB685B6AD2B21A70FB68F3
:103FCC005B6A5A1CFB685A62FB681B8D013B9AB2F8
:103FDC00FB681A85FB685B8D9BB2013B9AB2FB6850
:103FEC005A8562B600BFFB681B681A69FB685B6A7E
:103FFC00D2B21A70FB685B6A5A1CFB685A62FB6887
:10400C001B8D013B9AB2FB681A85FB685B8D9BB2DA
:10401C00013B9AB2FB685A85EEE07B6A00933B6BDE
:10402C0000228149F86800F035FF0346002B01D0CF
:10403C000123F5E0FB681B681A68FB681B6822F417
:10404C0080621A6072B600BFFB681B681A69FB6855
:10405C005B6AD2B21A70FB685B6A5A1CFB685A62C4
:10406C00FB681B8D013B9AB2FB681A85FB685B8D64
:10407C009BB2013B9AB2FB685A856C4B1B68DB0800
:10408C006B4AA2FB03231A0A13469B001344DA0063
:10409C00D31A3B623B6A013B3B623B6A002B18D153
:1040AC00FB6800221A63FB68202283F83D20FB6822
:1040BC00002283F83E20FB681B6C43F02002FB6857
:1040CC001A6462B600BFFB68002283F83C2001230F
:1040DC00A6E0FB681B685B6903F00403042BD9D1D1
:1040EC00FB681B681A68FB681B6842F400721A6054
:1040FC00FB681B681A69FB685B6AD2B21A70FB68B2
:10410C005B6A5A1CFB685A62FB681B8D013B9AB2B6
:10411C00FB681A85FB685B8D9BB2013B9AB2FB680E
:10412C005A8562B600BFFB681B681A69FB685B6A3C
:10413C00D2B21A70FB685B6A5A1CFB685A62FB6845
:10414C001B8D013B9AB2FB681A85FB685B8D9BB299
:10415C00013B9AB2FB685A854EE07A6A396BF86873
:10416C0001F042F80346002B01D0012358E0FB6814
:10417C001B681A69FB685B6AD2B21A70FB685B6ACF
:10418C005A1CFB685A62FB681B8D013B9AB2FB6898
:10419C001A85FB685B8D9BB2013B9AB2FB685A8512
:1041AC00FB681B685B6903F00403042B24D1FB68D8
:1041BC001B8D032B07D1FB681B681A68FB681B68F7
:1041CC0022F480621A60FB681B681A69FB685B6AE0
:1041DC00D2B21A70FB685B6A5A1CFB685A62FB68A5
:1041EC001B8D013B9AB2FB681A85FB685B8D9BB2F9
:1041FC00013B9AB2FB685A85FB681B8D002B7FF440
:10420C0088AEFB68202283F83D20FB68002283F8EF
:10421C003E20FB68002283F83C20002300E00223B0
:10422C0018462837BD4680BD040001000000002060
:10423C0089B5F81480B588B002AFF860084611460D
:10424C001A4603467B810B463B811346FB80FEF7E7
:10425C00A1FF7861FB6893F83D30DBB2202B40F076
:10426C00D9807B690093192301226D49F86800F00D
:10427C0011FE0346002B01D00223CCE0FB6893F81F
:10428C003C30012B01D10223C5E0FB68012283F8ED
:10429C003C20FB681B681B6803F00103012B07D053
:1042AC00FB681B681A68FB681B6842F001021A6005
:1042BC00FB681B681A68FB681B6822F400621A60B2
:1042CC00FB68212283F83D20FB68402283F83E20C6
:1042DC00FB6800221A64FB683A6A5A62FB68BA8C63
:1042EC005A85FB685B8D9AB2FB681A85FB684D4A50
:1042FC00DA62F8883A8979897B690193BB6A009301
:10430C000346F86800F048FC0346002B52D001230A
:10431C0081E07A69B96AF86800F0D6FE0346002B92
:10432C000DD0FB681B6C042B07D1FB681B681A684B
:10433C00FB681B6842F400721A6001236BE0FB6897
:10434C005B6A1A78FB681B681A61FB685B6A5A1C0B
:10435C00FB685A62FB681B8D013B9AB2FB681A859D
:10436C00FB685B8D9BB2013B9AB2FB685A85FB687C
:10437C001B685B6903F00403042B1BD1FB681B8DCA
:10438C00002B17D0FB685B6A1A78FB681B681A61F4
:10439C00FB685B6A5A1CFB685A62FB681B8D013B0D
:1043AC009AB2FB681A85FB685B8D9BB2013B9AB293
:1043BC00FB685A85FB681B8D002BAAD17A69B96AF8
:1043CC00F86800F0C9FE0346002B0DD0FB681B6C8F
:1043DC00042B07D1FB681B681A68FB681B6842F446
:1043EC0000721A60012316E0FB681B681A68FB68F0
:1043FC001B6842F400721A60FB68202283F83D208F
:10440C00FB68002283F83E20FB68002283F83C20E6
:10441C00002300E0022318461837BD4680BD00BFBC
:10442C00020010000000FFFF80B58CB002AFF860F6
:10443C00084611461A4603467B810B463B811346C0
:10444C00FB8000233B62FEF7A5FE7862FB6893F8C5
:10445C003D30DBB2202B40F044827B6A0093192361
:10446C0001228249F86800F015FD0346002B01D0AB
:10447C00022337E2FB6893F83C30012B01D1022375
:10448C0030E2FB68012283F83C20FB681B681B6848
:10449C0003F00103012B07D0FB681B681A68FB684B
:1044AC001B6842F001021A60FB681B681A68FB6803
:1044BC001B6822F400621A60FB68222283F83D20FC
:1044CC00FB68402283F83E20FB6800221A64FB68DC
:1044DC003A6B5A62FB68BA8E5A85FB685B8D9AB24E
:1044EC00FB681A85FB68624ADA62F8883A8979892E
:1044FC007B6A0193BB6B00930346F86800F0E2FB08
:10450C000346002B01D00123ECE1FB681B8D002B33
:10451C0013D10023FB61FB681B685B69FB61FB68C3
:10452C001B689B69FB61FB69FB681B681A68FB686D
:10453C001B6842F400721A60C0E1FB681B8D012BF2
:10454C001ED1FB681B681A68FB681B6822F480622A
:10455C001A6072B600BF0023BB61FB681B685B6905
:10456C00BB61FB681B689B69BB61BB69FB681B6813
:10457C001A68FB681B6842F400721A6062B635E078
:10458C00FB681B8D022B1ED1FB681B681A68FB682D
:10459C001B6842F400621A6072B600BF00237B6194
:1045AC00FB681B685B697B61FB681B689B697B61B3
:1045BC007B69FB681B681A68FB681B6822F48062C5
:1045CC001A6062B612E0FB681B681A68FB681B680D
:1045DC0042F480621A6000233B61FB681B685B69D4
:1045EC003B61FB681B689B693B613B6966E1FB684F
:1045FC001B8D032B00F21F81FB681B8D012B23D11C
:10460C007A6AB96BF86800F0EFFD0346002B01D015
:10461C00012367E1FB681B681A69FB685B6AD2B20D
:10462C001A70FB685B6A5A1CFB685A62FB681B8D2C
:10463C00013B9AB2FB681A85FB685B8D9BB2013B10
:10464C009AB2FB685A8539E1FB681B8D022B52D15B
:10465C007B6A0093BB6B00220649F86800F01AFCD9
:10466C000346002B08D001233CE100BF02001000E0
:10467C000000FFFF0400010072B600BFFB681B685E
:10468C001A68FB681B6842F400721A60FB681B68AE
:10469C001A69FB685B6AD2B21A70FB685B6A5A1CB7
:1046AC00FB685A62FB681B8D013B9AB2FB681A854A
:1046BC00FB685B8D9BB2013B9AB2FB685A8562B674
:1046CC0000BFFB681B681A69FB685B6AD2B21A7080
:1046DC00FB685B6A5A1CFB685A62FB681B8D013BCA
:1046EC009AB2FB681A85FB685B8D9BB2013B9AB250
:1046FC00FB685A85E2E07B6A0093BB6B00227B4926
:10470C00F86800F0C7FB0346002B01D00123E9E059
:10471C00FB681B681A68FB681B6822F480621A60CD
:10472C0072B600BFFB681B681A69FB685B6AD2B281
:10473C001A70FB685B6A5A1CFB685A62FB681B8D1B
:10474C00013B9AB2FB681A85FB685B8D9BB2013BFF
:10475C009AB2FB685A85664B1B68DB08654AA2FB5C
:10476C0003231A0A13469B001344DA00D31A3B6244
:10477C003B6A013B3B623B6A002B18D1FB68002271
:10478C001A63FB68202283F83D20FB68002283F823
:10479C003E20FB681B6C43F02002FB681A6462B677
:1047AC0000BFFB68002283F83C2001239AE0FB68E1
:1047BC001B685B6903F00403042BD9D1FB681B68ED
:1047CC001A68FB681B6842F400721A60FB681B686D
:1047DC001A69FB685B6AD2B21A70FB685B6A5A1C76
:1047EC00FB685A62FB681B8D013B9AB2FB681A8509
:1047FC00FB685B8D9BB2013B9AB2FB685A8562B633
:10480C0000BFFB681B681A69FB685B6AD2B21A703E
:10481C00FB685B6A5A1CFB685A62FB681B8D013B88
:10482C009AB2FB681A85FB685B8D9BB2013B9AB20E
:10483C00FB685A8542E07A6AB96BF86800F0D4FCE0
:10484C000346002B01D001234CE0FB681B681A695E
:10485C00FB685B6AD2B21A70FB685B6A5A1CFB6815
:10486C005A62FB681B8D013B9AB2FB681A85FB6888
:10487C005B8D9BB2013B9AB2FB685A85FB681B6847
:10488C005B6903F00403042B18D1FB681B681A69DD
:10489C00FB685B6AD2B21A70FB685B6A5A1CFB68D5
:1048AC005A62FB681B8D013B9AB2FB681A85FB6848
:1048BC005B8D9BB2013B9AB2FB685A85FB681B8DE2
:1048CC00002B7FF494AEFB68202283F83D20FB681C
:1048DC00002283F83E20FB68002283F83C20002352
:1048EC0000E0022318462837BD4680BD04000100B5
:1048FC000000002089B5F81480B588B002AFF860CC
:10490C007A603B600B467B81FB68DB6A7B617B6971
:10491C00082B06D07B69012B03D07B6913F5803FF4
:10492C0008D1FB681B681A68FB681B6842F480722C
:10493C001A600BE0FB681B6B122B07D1FB681B6822
:10494C001A68FB681B6842F480721A603B6800931B
:10495C007B6800224FF00111F86800F09BFA0346C7
:10496C00002B0DD0FB681B681B6803F48073B3F538
:10497C00807F03D1FB684FF400721A64032335E087
:10498C00FB681B69B3F5804F08D17B89DBB21A46F3
:10499C00FB681B6802F0FE021A611BE07B89DB11CD
:1049AC00DBB203F00603DBB263F00F03DAB2FB6891
:1049BC001B681A613B687A680E49F86800F0E4FAE3
:1049CC000346002B01D0012310E07B89DAB2FB688F
:1049DC001B681A613B687A680749F86800F0D4FADA
:1049EC000346002B01D0012300E0002318461837A2
:1049FC00BD4680BD080001000200010080B588B0F2
:104A0C0002AFF8607A603B600B467B81FB68DB6A27
:104A1C007B61FB681B681A68FB681B6842F4806248
:104A2C001A607B69082B06D07B69012B03D07B694C
:104A3C0013F5803F08D1FB681B681A68FB681B687C
:104A4C0042F480721A600BE0FB681B6B112B07D1D0
:104A5C00FB681B681A68FB681B6842F480721A605A
:104A6C003B6800937B6800224FF00111F86800F05E
:104A7C0011FA0346002B0DD0FB681B681B6803F46E
:104A8C008073B3F5807F03D1FB684FF400721A6416
:104A9C00032379E0FB681B69B3F5804F08D17B8950
:104AAC00DBB243F00103DAB2FB681B681A615FE00A
:104ABC007B89DB11DBB203F00603DBB263F00F037F
:104ACC00DAB2FB681B681A613B687A683049F8688F
:104ADC0000F05AFA0346002B01D0012354E07B89E5
:104AEC00DAB2FB681B681A613B687A682949F86876
:104AFC0000F04AFA0346002B01D0012344E00023C6
:104B0C003B61FB681B685B693B61FB681B689B69CD
:104B1C003B613B69FB681B681A68FB681B6842F4C5
:104B2C0080721A603B6800937B6800224FF0011181
:104B3C00F86800F0AFF90346002B0DD0FB681B683A
:104B4C001B6803F48073B3F5807F03D1FB684FF4CB
:104B5C0000721A64032317E07B89DB11DBB203F0CC
:104B6C000603DBB263F00E03DAB2FB681B681A6152
:104B7C003B687A680749F86800F006FA0346002B90
:104B8C0001D0012300E0002318461837BD4680BD34
:104B9C00080001000200010080B588B002AFF86087
:104BAC00084611461A4603467B810B463B81134649
:104BBC00FB80FB681B681A68FB681B6842F48072F8
:104BCC001A607B6A00933B6A00224FF00111F8686F
:104BDC0000F060F90346002B0DD0FB681B681B68C6
:104BEC0003F48073B3F5807F03D1FB684FF400723C
:104BFC001A6403235FE07B89DBB21A46FB681B68EF
:104C0C0002F0FE021A617B6A3A6A2D49F86800F0DC
:104C1C00BBF90346002B01D001234CE000237B6140
:104C2C00FB681B685B697B61FB681B689B697B612C
:104C3C007B697A6A396AF86800F046FA0346002BF9
:104C4C000DD0FB681B6C042B07D1FB681B681A6822
:104C5C00FB681B6842F400721A6001232BE0FB888E
:104C6C00012B05D13B89DAB2FB681B681A6121E084
:104C7C003B891B0A9BB2DAB2FB681B681A617A6A21
:104C8C00396AF86800F020FA0346002B0DD0FB6857
:104C9C001B6C042B07D1FB681B681A68FB681B682C
:104CAC0042F400721A60012305E03B89DAB2FB681A
:104CBC001B681A61002318461837BD4680BD00BF1B
:104CCC000200010080B588B002AFF86008461146BA
:104CDC001A4603467B810B463B811346FB80FB68DF
:104CEC001B681A68FB681B6842F480621A60FB68D8
:104CFC001B681A68FB681B6842F480721A607B6A36
:104D0C0000933B6A00224FF00111F86800F0C2F8E2
:104D1C000346002B0DD0FB681B681B6803F48073E3
:104D2C00B3F5807F03D1FB684FF400721A64032340
:104D3C00AAE07B89DBB21A46FB681B6802F0FE0214
:104D4C001A617B6A3A6A5249F86800F01DF9034609
:104D5C00002B01D0012397E000237B61FB681B68CB
:104D6C005B697B61FB681B689B697B617B697A6A09
:104D7C00396AF86800F0A8F90346002B0DD0FB68DF
:104D8C001B6C042B07D1FB681B681A68FB681B683B
:104D9C0042F400721A60012376E0FB88012B05D1E6
:104DAC003B89DAB2FB681B681A6121E03B891B0A5C
:104DBC009BB2DAB2FB681B681A617A6A396AF868C6
:104DCC0000F082F90346002B0DD0FB681B6C042B02
:104DDC0007D1FB681B681A68FB681B6842F40072F9
:104DEC001A60012350E03B89DAB2FB681B681A6138
:104DFC007A6A396AF86800F067F90346002B0DD01F
:104E0C00FB681B6C042B07D1FB681B681A68FB68DA
:104E1C001B6842F400721A60012335E0FB681B68C2
:104E2C001A68FB681B6842F480721A607B6A0093F4
:104E3C003B6A00224FF00111F86800F02BF8034692
:104E4C00002B0DD0FB681B681B6803F48073B3F553
:104E5C00807F03D1FB684FF400721A64032313E0C4
:104E6C007B89DBB243F00103DAB2FB681B681A6181
:104E7C007B6A3A6A0649F86800F086F80346002B0C
:104E8C0001D0012300E0002318461837BD4680BD31
:104E9C000200010080B584B000AFF860B9603B60DF
:104EAC001346FB7148E03B68B3F1FF3F44D0FEF77B
:104EBC0071F90246BB69D31A3A689A4202D33B682D
:104ECC00002B39D1BB681B0CDBB2012B0DD1FB685D
:104EDC001B685B69DA43BB6813409BB2002B0CBFA9
:104EEC0001230023DBB21A460CE0FB681B689B69AC
:104EFC00DA43BB6813409BB2002B0CBF0123002389
:104F0C00DBB21A46FB799A4216D1FB6800221A636F
:104F1C00FB68202283F83D20FB68002283F83E20AA
:104F2C00FB681B6C43F02002FB681A64FB680022D0
:104F3C0083F83C20012323E0BB681B0CDBB2012B64
:104F4C000DD1FB681B685B69DA43BB6813409BB2ED
:104F5C00002B0CBF01230023DBB21A460CE0FB68CC
:104F6C001B689B69DA43BB6813409BB2002B0CBFD8
:104F7C0001230023DBB21A46FB799A4293D000231B
:104F8C0018461037BD4680BD80B584B000AFF860C0
:104F9C00B9607A603B6071E0FB681B685B6903F485
:104FAC008063B3F5806F23D1FB681B681A68FB68BC
:104FBC001B6842F400721A60FB681B686FF4806215
:104FCC005A61FB6800221A63FB68202283F83D209B
:104FDC00FB68002283F83E20FB681B6C43F0040244
:104FEC00FB681A64FB68002283F83C20012367E00D
:104FFC007B68B3F1FF3F41D0FEF7CCF802463B682B
:10500C00D31A7A689A4202D37B68002B36D1BB68DC
:10501C001B0CDBB2012B0CD1FB681B685B69DA4300
:10502C00BB6813409BB2002B14BF01230023DBB2DF
:10503C000BE0FB681B689B69DA43BB6813409BB2AF
:10504C00002B14BF01230023DBB2002B16D0FB680E
:10505C0000221A63FB68202283F83D20FB680022A3
:10506C0083F83E20FB681B6C43F02002FB681A643B
:10507C00FB68002283F83C20012321E0BB681B0C59
:10508C00DBB2012B0CD1FB681B685B69DA43BB6894
:10509C0013409BB2002B14BF01230023DBB20BE0A7
:1050AC00FB681B689B69DA43BB6813409BB2002BFF
:1050BC0014BF01230023DBB2002B7FF46DAF002360
:1050CC0018461037BD4680BD80B584B000AFF8607F
:1050DC00B9607A6034E0F86800F0E3F80346002B1E
:1050EC0001D0012334E0BB68B3F1FF3F28D0FEF7B9
:1050FC0051F802467B68D31ABA689A4202D3BB684D
:10510C00002B1DD1FB681B685B6903F08003802BAF
:10511C0016D0FB6800221A63FB68202283F83D201E
:10512C00FB68002283F83E20FB681B6C43F02002D6
:10513C00FB681A64FB68002283F83C20012307E01B
:10514C00FB681B685B6903F08003802BC3D10023D1
:10515C0018461037BD4680BD80B584B000AFF860EE
:10516C00B9607A6034E0F86800F09BF80346002BD5
:10517C0001D0012334E0BB68B3F1FF3F28D0FEF728
:10518C0009F802467B68D31ABA689A4202D3BB6804
:10519C00002B1DD1FB681B685B6903F00403042B17
:1051AC0016D0FB6800221A63FB68202283F83D208E
:1051BC00FB68002283F83E20FB681B6C43F0200246
:1051CC00FB681A64FB68002283F83C20012307E08B
:1051DC00FB681B685B6903F00403042BC3D1002339
:1051EC0018461037BD4680BD80B584B000AFF8605E
:1051FC00B9607A6049E0FB681B685B6903F01003D7
:10520C00102B19D1FB681B686FF010025A61FB68F8
:10521C0000221A63FB68202283F83D20FB680022E1
:10522C0083F83E20FB681A6CFB681A64FB6800224A
:10523C0083F83C20012330E0FDF7ACFF02467B688D
:10524C00D31ABA689A4202D3BB68002B1DD1FB68F3
:10525C001B685B6903F04003402B16D0FB680022EF
:10526C001A63FB68202283F83D20FB68002283F838
:10527C003E20FB681B6C43F02002FB681A64FB6841
:10528C00002283F83C20012307E0FB681B685B6964
:10529C0003F04003402BAED1002318461037BD4617
:1052AC0080BD80B483B000AF78607B681B685B699D
:1052BC0003F48063B3F5806F1BD17B681B686FF4BC
:1052CC0080625A617B6800221A637B68202283F813
:1052DC003D207B68002283F83E207B681B6C43F0EA
:1052EC0004027B681A647B68002283F83C2001234B
:1052FC0000E0002318460C37BD4680BC704780B5D3
:10530C0084B000AF78607B68002B01D1012334E0BE
:10531C007B681B684CF6CC421A607B681B6845F2B4
:10532C0055521A607B681B687A6852685A607B68B1
:10533C001B687A6892689A60FDF72CFFF8600FE0A2
:10534C00FDF728FF0246FB68D31A272B08D97B6888
:10535C001B68DB6803F00303002B01D003230CE074
:10536C007B681B68DB6803F00303002BE8D17B68C8
:10537C001B684AF6AA221A60002318461037BD464D
:10538C0080BD80B483B000AF78607B681B684AF640
:10539C00AA221A60002318460C37BD4680BC704701
:1053AC0080B586B000AF78607B68002B01D10123FB
:1053BC0072E27B681B6803F00103002B00F087800E
:1053CC00924B5B6803F00C03042B0CD08F4B5B6887
:1053DC0003F00C03082B12D18C4B5B6803F4803365
:1053EC00B3F5803F0BD1894B1B6803F40033002BC2
:1053FC006CD07B685B68002B68D101234CE27B6826
:10540C005B68B3F5803F06D1804B1B687F4A43F441
:10541C00803313602EE07B685B68002B0CD17B4BD8
:10542C001B687A4A23F480331360784B1B68774AE5
:10543C0023F4802313601DE07B685B68B3F5A02F19
:10544C000CD1724B1B68714A43F4802313606F4B71
:10545C001B686E4A43F4803313600BE06B4B1B6884
:10546C006A4A23F480331360684B1B68674A23F441
:10547C00802313607B685B68002B13D0FDF78AFEDA
:10548C00386108E0FDF786FE02463B69D31A642BAF
:10549C0001D9032300E25D4B1B6803F40033002B9E
:1054AC00F0D014E0FDF776FE386108E0FDF772FEEF
:1054BC0002463B69D31A642B01D90323ECE1534B0D
:1054CC001B6803F40033002BF0D100E000BF7B68B5
:1054DC001B6803F00203002B63D04C4B5B6803F09A
:1054EC000C03002B0BD0494B5B6803F00C03082B0F
:1054FC001CD1464B5B6803F48033002B16D1434B15
:10550C001B6803F00203002B05D07B681B69012B81
:10551C0001D00123C0E13D4B1B6823F0F8027B68EE
:10552C005B69DB00394913430B603AE07B681B690C
:10553C00002B20D0364B01221A60FDF72BFE386170
:10554C0008E0FDF727FE02463B69D31A022B01D96E
:10555C000323A1E12D4B1B6803F00203002BF0D0B9
:10556C002A4B1B6823F0F8027B685B69DB00274938
:10557C0013430B6015E0264B00221A60FDF70AFE60
:10558C00386108E0FDF706FE02463B69D31A022B90
:10559C0001D9032380E11D4B1B6803F00203002B90
:1055AC00F0D17B681B6803F00803002B3AD07B68B2
:1055BC009B69002B19D0174B01221A60FDF7EAFDED
:1055CC00386108E0FDF7E6FD02463B69D31A022B71
:1055DC0001D9032360E10D4B5B6A03F00203002B3E
:1055EC00F0D0012000F0CEFA1CE00A4B00221A6029
:1055FC00FDF7D0FD38610FE0FDF7CCFD02463B69AD
:10560C00D31A022B08D9032346E100BF0010024035
:10561C000000424280044242924B5B6A03F0020358
:10562C00002BE9D17B681B6803F00403002B00F00E
:10563C00A6800023FB758B4BDB6903F08053002B9A
:10564C000DD1884BDB69874A43F08053D361854B7E
:10565C00DB6903F08053BB60BB680123FB75824B95
:10566C001B6803F48073002B18D17F4B1B687E4A98
:10567C0043F480731360FDF78DFD386108E0FDF78E
:10568C0089FD02463B69D31A642B01D9032303E13C
:10569C00754B1B6803F48073002BF0D07B68DB68C0
:1056AC00012B06D16F4B1B6A6E4A43F00103136248
:1056BC002DE07B68DB68002B0CD16A4B1B6A694AB6
:1056CC0023F001031362674B1B6A664A23F0040341
:1056DC0013621CE07B68DB68052B0CD1614B1B6AE9
:1056EC00604A43F0040313625E4B1B6A5D4A43F04D
:1056FC00010313620BE05B4B1B6A5A4A23F0010354
:10570C001362584B1B6A574A23F0040313627B68DD
:10571C00DB68002B15D0FDF73DFD38610AE0FDF785
:10572C0039FD02463B69D31A41F28832934201D9C2
:10573C000323B1E04B4B1B6A03F00203002BEED0AA
:10574C0014E0FDF727FD38610AE0FDF723FD024662
:10575C003B69D31A41F28832934201D903239BE06F
:10576C00404B1B6A03F00203002BEED1FB7D012B97
:10577C0005D13C4BDB693B4A23F08053D3617B68FA
:10578C00DB69002B00F08780364B5B6803F00C0361
:10579C00082B61D07B68DB69022B46D1334B00228E
:1057AC001A60FDF7F7FC386108E0FDF7F3FC0246E0
:1057BC003B69D31A022B01D903236DE0294B1B68DB
:1057CC0003F00073002BF0D17B681B6AB3F5803FAC
:1057DC0008D1244B5B6823F400327B689B68214919
:1057EC0013434B601F4B5B6823F474127B68196A7C
:1057FC007B685B6A0B431B4913434B601B4B0122B9
:10580C001A60FDF7C7FC386108E0FDF7C3FC0246DF
:10581C003B69D31A022B01D903233DE0114B1B68C2
:10582C0003F00073002BF0D035E0104B00221A600F
:10583C00FDF7B0FC386108E0FDF7ACFC02463B69B3
:10584C00D31A022B01D9032326E0064B1B6803F065
:10585C000073002BF0D11EE07B68DB69012B07D1B4
:10586C00012319E000100240007000406000424229
:10587C000B4B5B68FB60FB6803F480327B681B6A34
:10588C009A4206D1FB6803F470127B685B6A9A42F9
:10589C0001D0012300E0002318461837BD4680BD17
:1058AC000010024080B584B000AF786039607B682E
:1058BC00002B01D10123D0E06A4B1B6803F00703D6
:1058CC003A689A4210D9674B1B6823F00702654966
:1058DC003B6813430B60634B1B6803F007033A6888
:1058EC009A4201D00123B8E07B681B6803F00203E5
:1058FC00002B20D07B681B6803F00403002B05D021
:10590C00594B5B68584A43F4E06353607B681B68EF
:10591C0003F00803002B05D0534B5B68524A43F449
:10592C0060535360504B5B6823F0F0027B689B68BC
:10593C004D4913434B607B681B6803F00103002B3C
:10594C0040D07B685B68012B07D1474B1B6803F485
:10595C000033002B15D101237FE07B685B68022BA1
:10596C0007D1414B1B6803F00073002B09D10123B5
:10597C0073E03D4B1B6803F00203002B01D10123A4
:10598C006BE0394B5B6823F003027B685B6836493C
:10599C0013434B60FDF7FEFBF8600AE0FDF7FAFBE2
:1059AC000246FB68D31A41F28832934201D9032391
:1059BC0053E02D4B5B6803F00C027B685B689B002B
:1059CC009A42EBD1274B1B6803F007033A689A42C3
:1059DC0010D2244B1B6823F0070222493B68134367
:1059EC000B60204B1B6803F007033A689A4201D006
:1059FC00012332E07B681B6803F00403002B08D002
:105A0C00194B5B6823F4E0627B68DB68164913432F
:105A1C004B607B681B6803F00803002B09D0124B0A
:105A2C005B6823F460527B681B69DB000E491343EF
:105A3C004B6000F021F802460B4B5B681B0903F02E
:105A4C000F030A49CB5C22FA03F3094A1360094B92
:105A5C001B681846FDF75CFB002318461037BD4643
:105A6C0080BD00BF002002400010024004760008F8
:105A7C00000000200400002080B487B000AF002399
:105A8C00FB600023BB6000237B6100237B60002351
:105A9C003B611E4B5B68FB60FB6803F00C03042B43
:105AAC0002D0082B03D027E0194B3B6127E0FB68A1
:105ABC009B0C03F00F03174AD35C7B60FB6803F469
:105ACC008033002B10D0114B5B685B0C03F001038F
